:020000022000DC
:1070000080AD00202D4F040083C90500014F04000E
:10701000014F0400014F0400014F04000000000074
:10702000000000000000000000000000094C040007
:10703000014F040000000000B54B0400014F0400A4
:10704000B94C0400992F0600B94C0400B94C040057
:10705000B94C0400B94C0400B94C0400B94C04000C
:10706000472F0600B94C0400B94C04007F2F0600DE
:10707000B94C0400B94C0400B94C0400B94C0400EC
:10708000B94C0400B94C0400B94C0400B94C0400DC
:10709000B94C0400B94C0400B94C0400B94C0400CC
:1070A000B94C0400B94C0400B94C0400B94C0400BC
:1070B000B94C0400B94C0400B94C0400B94C0400AC
:1070C000B94C0400B94C0400B94C0400B94C04009C
:1070D000B94C0400B94C0400B94C0400B94C04008C
:1070E000B94C0400B94C0400B94C0400B94C04007C
:1070F000B94C0400B94C0400B94C0400B94C04006C
:1071000081F0004102E000BF83F0004330B54FEA58
:1071100041044FEA430594EA050F08BF90EA020FC5
:107120001FBF54EA000C55EA020C7FEA645C7FEA58
:10713000655C00F0E2804FEA5454D4EB5555B8BF7B
:107140006D420CDD2C4480EA020281EA030382EAEC
:10715000000083EA010180EA020281EA0303362D7E
:1071600088BF30BD11F0004F4FEA01314FF4801C51
:107170004CEA113102D0404261EB410113F0004F63
:107180004FEA03334CEA133302D0524263EB43031A
:1071900094EA050F00F0A780A4F10104D5F1200EB8
:1071A0000DDB02FA0EFC22FA05F2801841F1000113
:1071B00003FA0EF2801843FA05F359410EE0A5F1E7
:1071C00020050EF1200E012A03FA0EFC28BF4CF018
:1071D000020C43FA05F3C01851EBE37101F00045CE
:1071E00007D54FF0000EDCF1000C7EEB00006EEBDB
:1071F0000101B1F5801F1BD3B1F5001F0CD3490865
:107200005FEA30004FEA3C0C04F101044FEA4452BB
:1072100012F5800F80F09A80BCF1004F08BF5FEA42
:10722000500C50F1000041EB045141EA050130BD22
:107230005FEA4C0C404141EB0101013C28BFB1F534
:10724000801FE9D291F0000F04BF01460020B1FA7F
:1072500081F308BF2033A3F10B03B3F120020CDA52
:107260000C3208DD02F1140CC2F10C0201FA0CF030
:1072700021FA02F10CE002F11402D8BFC2F1200C95
:1072800001FA02F120FA0CFCDCBF41EA0C0190404B
:10729000E41AA2BF01EB0451294330BD6FEA040494
:1072A0001F3C1CDA0C340EDC04F11404C4F120027F
:1072B00020FA04F001FA02F340EA030021FA04F391
:1072C00045EA030130BDC4F10C04C4F1200220FAE8
:1072D00002F001FA04F340EA0300294630BD21FA26
:1072E00004F0294630BD94F0000F83F4801306BFEC
:1072F00081F480110134013D4EE77FEA645C18BFE0
:107300007FEA655C29D094EA050F08BF90EA020F76
:1073100005D054EA000C04BF1946104630BD91EA6E
:10732000030F1EBF0021002030BD5FEA545C05D171
:107330004000494128BF41F0004130BD14F58004B0
:107340003CBF01F5801130BD01F0004545F0FE4124
:1073500041F470014FF0000030BD7FEA645C1ABF59
:10736000194610467FEA655C1CBF0B46024650EA90
:10737000013406BF52EA033591EA030F41F40021BC
:1073800030BD00BF90F0000F04BF0021704730B542
:107390004FF4806404F132044FF000054FF0000117
:1073A00050E700BF90F0000F04BF0021704730B5D8
:1073B0004FF4806404F1320410F0004548BF4042AD
:1073C0004FF000013EE700BF42004FEAE2014FEA02
:1073D00031014FEA02701FBF12F07F4393F07F4FDD
:1073E00081F06051704732F07F4208BF704793F0E0
:1073F0007F4F04BF41F40021704730B54FF46074F3
:1074000001F0004521F000411CE700BF50EA0102F5
:1074100008BF704730B54FF000050AE050EA01029E
:1074200008BF704730B511F0004502D5404261EB0E
:1074300041014FF4806404F132045FEA915C3FF44F
:10744000D8AE4FF003025FEADC0C18BF03325FEAEC
:10745000DC0C18BF033202EBDC02C2F1200300FA9D
:1074600003FC20FA02F001FA03FE40EA0E0021FAC2
:1074700002F11444BDE600BF70B54FF0FF0C4CF4B0
:10748000E06C1CEA11541DBF1CEA135594EA0C0F62
:1074900095EA0C0F00F0DEF82C4481EA030621EA9D
:1074A0004C5123EA4C5350EA013518BF52EA0335D8
:1074B00041F4801143F4801338D0A0FB02CE4FF08A
:1074C0000005E1FB02E506F00042E0FB03E54FF0BA
:1074D0000006E1FB03569CF0000F18BF4EF0010EB2
:1074E000A4F1FF04B6F5007F64F5407404D25FEAAE
:1074F0004E0E6D4146EB060642EAC62141EA555161
:107500004FEAC52040EA5E504FEACE2EB4F1FD0CA2
:1075100088BFBCF5E06F1ED8BEF1004F08BF5FEA20
:10752000500E50F1000041EB045170BD06F00046D2
:1075300046EA010140EA020081EA0301B4EB5C047F
:10754000C2BFD4EB0C0541EA045170BD41F4801177
:107550004FF0000E013C00F3AB8014F1360FDEBF9C
:10756000002001F0004170BDC4F10004203C35DA78
:107570000C341BDC04F11404C4F1200500FA05F3FB
:1075800020FA04F001FA05F240EA020001F000429C
:1075900021F0004110EBD37021FA04F642EB060112
:1075A0005EEA430E08BF20EAD37070BDC4F10C043C
:1075B000C4F1200500FA04F320FA05F001FA04F200
:1075C00040EA020001F0004110EBD37041F10001EC
:1075D0005EEA430E08BF20EAD37070BDC4F12005F7
:1075E00000FA05F24EEA020E20FA04F301FA05F25F
:1075F00043EA020321FA04F001F0004121FA04F207
:1076000020EA020000EBD3705EEA430E08BF20EAD6
:10761000D37070BD94F0000F0FD101F00046400010
:1076200041EB010111F4801F08BF013CF7D041EA92
:10763000060195F0000F18BF704703F00046520096
:1076400043EB030313F4801F08BF013DF7D043EA67
:107650000603704794EA0C0F0CEA135518BF95EA1D
:107660000C0F0CD050EA410618BF52EA4306D1D1A4
:1076700081EA030101F000414FF0000070BD50EAC3
:10768000410606BF1046194652EA430619D094EA4D
:107690000C0F02D150EA013613D195EA0C0F05D137
:1076A00052EA03361CBF104619460AD181EA03018B
:1076B00001F0004141F0FE4141F470014FF0000043
:1076C00070BD41F0FE4141F4780170BD70B54FF0DE
:1076D000FF0C4CF4E06C1CEA11541DBF1CEA13555E
:1076E00094EA0C0F95EA0C0F00F0A7F8A4EB050440
:1076F00081EA030E52EA03354FEA013100F0888037
:107700004FEA03334FF0805545EA131343EA1263FF
:107710004FEA022245EA111545EA10654FEA0026B4
:107720000EF000419D4208BF964244F1FD0404F56D
:10773000407402D25B084FEA3202B61A65EB0305C9
:107740005B084FEA32024FF480104FF4002CB6EB86
:10775000020E75EB030E22BFB61A754640EA0C0006
:107760005B084FEA3202B6EB020E75EB030E22BF46
:10777000B61A754640EA5C005B084FEA3202B6EB87
:10778000020E75EB030E22BFB61A754640EA9C0046
:107790005B084FEA3202B6EB020E75EB030E22BF16
:1077A000B61A754640EADC0055EA060E18D04FEAD4
:1077B000051545EA16754FEA06164FEAC30343EA74
:1077C00052734FEAC2025FEA1C1CC0D111F4801F41
:1077D0000BD141EA00014FF000004FF0004CB6E73A
:1077E00011F4801F04BF01430020B4F1FD0C88BFD9
:1077F000BCF5E06F3FF6AFAEB5EB030C04BFB6EBE4
:10780000020C5FEA500C50F1000041EB045170BDD6
:107810000EF0004E4EEA113114EB5C04C2BFD4EB03
:107820000C0541EA045170BD41F480114FF0000E87
:10783000013C90E645EA060E8DE60CEA135594EA03
:107840000C0F08BF95EA0C0F3FF43BAF94EA0C0F06
:107850000AD150EA01347FF434AF95EA0C0F7FF47B
:1078600025AF104619462CE795EA0C0F06D152EACF
:1078700003353FF4FDAE1046194622E750EA4106B3
:1078800018BF52EA43067FF4C5AE50EA41047FF4C4
:107890000DAF52EA43057FF4EBAE12E74A0011D276
:1078A00012F5001211D20DD56FF47873B3EB62525A
:1078B0000ED44FEAC12343F0004343EA505323FA66
:1078C00002F070474FF00000704750EA013002D1DB
:1078D0004FF0FF3070474FF00000704753B94AB97E
:1078E000002908BF00281CBF4FF0FF314FF0FF30C8
:1078F00000F00CB8ADF1080C6DE904CE14F0D3FC27
:10790000DDF804E0DDE9022304B07047704700BFF2
:107910002DE9F00791E8F807B2E802105B1854EB84
:107920000C04B2E802104D4156EB0C06B2E802100E
:107930004F4158EB0C08B2E8021059EB01095AEB21
:107940000C0A80E8F80780410130BDE8F007704775
:107950002DE9F00791E8F807B2E802105B1A74EB22
:107960000C04B2E802108D4176EB0C06B2E802106E
:107970008F4178EB0C08B2E8021079EB01097AEB41
:107980000C0A80E8F80780414042BDE8F0077047E4
:107990002DE9F007524290E87800B1E880071740DF
:1079A000DB1918EA020854EB080419EA020955EB3E
:1079B00009051AEA020A56EB0A0678C090E8780030
:1079C000B1E8800717407B4118EA020854EB08042D
:1079D00019EA020955EB09051AEA020A56EB0A06EA
:1079E00078C080410130BDE8F00770472DE9F0070D
:1079F000524290E87800B1E880071740DB1B18EA94
:107A0000020874EB080419EA020975EB09051AEA81
:107A1000020A76EB0A0678C090E87800B1E88007A1
:107A20001740BB4118EA020874EB080419EA02097E
:107A300075EB09051AEA020A76EB0A0678C080415E
:107A40004042BDE8F00770472DE9F00152424FF087
:107A5000040890E8300091E8C000A31B1340E41A2A
:107A6000F618EB1B1340ED1AFF1830C0C0C1B8F177
:107A70000108EED1BDE8F001704700BF00B592E803
:107A8000DC072DE9DC07B1E8805702B4A7FB0251FF
:107A90000A95A8FB020BE7FB6310E9FB62B00B91B0
:107AA000A8FB0351EAFB6201E7FB64B5E7FB66054F
:107AB000E8FB6615CDF830B0A9FB03B6EAFB631608
:107AC000ECFB6356E8FB640BE9FB641BEAFB645BBD
:107AD000ECFB646B0D90ACFB0230059CEEFB62503E
:107AE000E9FB6460EAFB64B0E7FB6431E8FB6451E6
:107AF000069CE8FB6461E9FB64B1EAFB64010E9358
:107B0000A7FB0432079CE7FB6462E8FB64B2E9FB75
:107B10006402EAFB6412049CE9FB6453EAFB6463BD
:107B2000089CE7FB64B3E8FB6403E9FB6413EAFB2E
:107B300064230F955DF8049B99E80006DDF800804A
:107B4000A9FB0854EAFB68B4DDF81080ECFB68047C
:107B5000EEFB6814E9FB6824EAFB6834DDF8048076
:107B6000EEFB6865E9FB68B5EAFB6805DDF81480A3
:107B7000ECFB6815EEFB6825E9FB6835EAFB684518
:107B80000F96DDF80880AEFB0876E9FB6806EAFB95
:107B90006816DDF81880ECFB6826EEFB6836E9FB1A
:107BA0006846EAFB6856DDF80C80ECFB68B7EEFB34
:107BB0006807E9FB6817EAFB6827DDF81C80ECFB27
:107BC0006837EEFB6847E9FB6857EAFB686708B06F
:107BD00000BD00BF2DE9F14F87B0FFF74FFFDDF883
:107BE0001C8008F1200888E8FF00FFBC87E87F08B8
:107BF000BDE8F08F00B591E89857A3FB03520195BB
:107C0000A3FB0401E3FB6420E3FB67100292A3FBE8
:107C10000752E3FB6802E4FB6415E3FB6805E3FB42
:107C200069250391A4FB07B6E3FB6926E3FB6A56CB
:107C3000E4FB670BE4FB682BE3FB6A5BE3FB6C6B29
:107C40000490A4FB0810E4FB6950E3FB6C60E3FBC9
:107C50006EB0E7FB6721E4FB6951E4FB6A61E3FB7B
:107C60006EB1E4FB6E010592A7FB0832E4FB6A6289
:107C7000E4FB6CB2E4FB6E02E7FB6E12E7FB6853B9
:107C8000E7FB6963E4FB6CB3E7FB6C03E7FB6E1394
:107C9000E8FB6E230695A7FB0954E7FB6AB4E7FBF4
:107CA0006C04E8FB6C14E8FB6E24E9FB6E34E8FB23
:107CB0006865E7FB6AB5E8FB6A05E8FB6C15E9FB5C
:107CC0006C25E9FB6E35EAFB6E450796A8FB097645
:107CD000E8FB6A06E9FB6A16E9FB6C26EAFB6C36F0
:107CE000EAFB6E46ECFB6E56E8FB69B7E9FB6907F9
:107CF000E9FB6A17EAFB6A27EAFB6C37ECFB6C4787
:107D0000ECFB6E57EEFB6E6700BD00BF2DE9F14F37
:107D100087B0FFF76FFFDDF81C8008F1200888E8C6
:107D2000FF00FFBC87E87F08BDE8F08F30B44FF05C
:107D3000000310F8014B11F8015B013A84EA0504D5
:107D400043EA0403F5D1A3F101034FEAD37030BC39
:107D5000704700BF4FF0000310F8012B013943EAD0
:107D60000203F9D1A3F101034FEAD370704700BFBA
:107D700030B411F8014B12F8015B6C4000F8014B74
:107D8000013BF6D130BC70472DE9F00791E8F807C8
:107D9000B2E802105B1854EB0C04B2E802104D413B
:107DA00056EB0C06B2E802104F4158EB0C08B2E853
:107DB000021059EB01095AEB0C0A8941B3F1FF3368
:107DC00074F1FF3475F1FF3576F1000677F10007A5
:107DD00078F1000879F101097AF1FF3A51F10001D7
:107DE0005B184C414D4156F1000657F1000758F120
:107DF000000859EBD1795AEB010A80E8F807BDE891
:107E0000F00770472DE9F00791E8F807B2E8021093
:107E10005B1A74EB0C04B2E802108D4176EB0C0691
:107E2000B2E802108F4178EB0C08B2E8021079EB4F
:107E300001097AEB0C0A89415B184C414D4156F11E
:107E4000000657F1000758F1000859EBD1795AEBB9
:107E5000010A80E8F807BDE8F007704718EB04084E
:107E600059EB05095AEB060A5BEB070B5FF0000CB8
:107E70004CF1000C18EB050859EB06095AEB070A00
:107E80005BEB070B50EB0C005FF0000C51EB0C01AF
:107E900052EB0C0263414CF1000CB8EB070879F18E
:107EA00000097AF1000A7BEB040BA841B141A24121
:107EB000B3416CF1000CBBEB050BB041B941AA41D9
:107EC000BB416CF1000C6FEAEC74B8EB040879EB81
:107ED00004097AEB040A7BF1000B70F1000071F1E8
:107EE000000172EBD472A3416CF1000C18EBEC783A
:107EF00059EBEC795AEBEC7A5BF1000B50F1000492
:107F000051F1000552EBDC7653EBEC774CF1000CB1
:107F100018EBEC7059EBEC715AEBEC725BF100036F
:107F200054F1000455F1000556EBDC7657EBEC7785
:107F3000704700BF2DE9F14F87B0FFF79FFDDDF8D7
:107F40001080DDF81490DDF818A0FFF787FFBDE87A
:107F5000000FFFF783FF03B05DF8048B88E8FF0094
:107F6000BDE8F08F2DE9F14F87B0FFF743FEDDF854
:107F70001080DDF81490DDF818A0FFF76FFFBDE862
:107F8000000FFFF76BFF03B05DF8048B88E8FF007C
:107F9000BDE8F08F014800787047000028000020FD
:107FA00070B514F060FE134C6FF0270528B914F07B
:107FB00090FE10B914F097FE20B10F486060657014
:107FC000082010E014F024FE40B914F02BFE28B96C
:107FD00014F03FFE10B914F050FE30B106483130B5
:107FE000606065700420A07070BDE821742003F00B
:107FF00043FC000028000020B61C0400074991F94A
:108000000220904203DA91F90120904201DC1046EF
:1080100070474968801A0856704700002800002001
:108020002DE9F0411C4690460D4606466FF01507B7
:10803000042804D81CB114F089FAA84202D83846A2
:10804000BDE8F0810548424650F8260018B1405777
:10805000824200DD024622700020F1E778160020FF
:10806000002819D003781349134A13B1012B0ED0FD
:1080700011E00379012B00D06BB943790BB1012BCF
:1080800009D18368643B8B4205D2C0680EE0037956
:10809000012B02D00BB10020704743790BB1012BAB
:1080A000F9D1C368643B8B42F5D280689042F2D824
:1080B000012070473D860100FF3F420F10B5054C7F
:1080C000206810B1804700202060BDE8104002F019
:1080D00009B90000300000202DE9F0410E460500EE
:1080E00004D000F047F8074600240BE06FF01500BD
:1080F000BDE8F081204600F043F890F8260030B14A
:10810000641CE4B2BC42F5D36FF00B00F0E72746E5
:10811000FF2CF9D0204600F033F8044614F0E2FBBF
:1081200084F828702146084802F0B4F884F8270043
:10813000202806D00120256284F826003770002010
:10814000D6E76FF02200D3E70FC6030010B5820711
:1081500002D06FF00D0010BD054A1170506028B1BB
:1081600001EB41010A01002114F041FE002010BD85
:1081700034000020014800787047000034000020DF
:1081800005490A78904201D300207047496800EB06
:10819000400001EB00107047340000200E4910B57C
:1081A00091F82D00202812D091F82D00A1F58062C1
:1081B000C0EBC00002EB800091F82D104068C1EBCD
:1081C000C10152F82120BDE810400421104740F6BB
:1081D0008701702003F050FB8C1A002070B5054613
:1081E000202A28D019481A4C00EB831C03EB4303C8
:1081F0000CEB42002344202922D00CEB41014078B3
:108200004C784870204601460CEB410091420570C5
:108210004078F8D193F82220202A1ABF0CEB4202B2
:10822000547083F8214020220CEB410C8CF8012083
:1082300083F8221070BD40F29221702003F01CFBE5
:1082400093F82040407883F82000DBE70C1A0020E8
:108250008C1A00202DE9FF4F85B015460C4602F020
:108260004DFA284420F07F4102912068401A000214
:10827000C11700EB11600012002800F3F080DDF858
:108280002080CA4808EB48010844039090F8205029
:108290002020C74EEA460DF104098DF80000202D7C
:1082A0001CBFC44800EB881B39D000BFC5EBC5001C
:1082B00006EB800000F10801C0682768381A000248
:1082C000C21700EB1260001229D4E08900B3C889FC
:1082D000F0B90868049003F025F9B0F5C67F08BF2F
:1082E0000D200BD0A0F54070563808BF1C2005D0DB
:1082F000A0F500709F3814BF00203220411C049864
:10830000381A0002C21700EB12600012884206DB26
:108310000BEB45008AF800504578202DC6D19AF81D
:10832000000089F80000202D1CBFA24800EB881B2C
:1083300000F03881C5EBC50006EB80076068D7F810
:10834000088007F10801A8EB00000002C21700EB4B
:108350001260001227D4C889002800F02381E08928
:10836000002840F01F81D4F800A003F0DBF8B0F53E
:10837000C67F08BF0D200BD0A0F54070563808BF4F
:108380001C2005D0A0F500709F3814BF00203220BB
:10839000411CA8EB0A000002C21700EB1260001299
:1083A000884280F2FF8089F80050397E207C81422B
:1083B00006D90BEB45004578202DBBD100F0F2B873
:1083C0009DF80400C0EBC00006EB8000C18AC568C0
:1083D000E1BBE189D1B3876803F0A4F8B0F5C67FAB
:1083E00008BF0D200BD0A0F54070563808BF1C20E8
:1083F00005D0A0F500709F3814BF00203220411C2A
:10840000E81B0002C21700EB1260001288421DDA5E
:1084100003F088F8B0F5C67F08BF0D200BD0A0F59B
:108420004070563808BF1C2005D0A0F500709F385A
:1084300014BF002032209DF80410401CC1EBC10184
:1084400006EB81018968084420F07F450298281ACC
:108450000002C11700EB11600012002803DD09B013
:108460000020BDE8F08FD4E90010401A284425F020
:108470007F4120F07F40C4E90010089804900398E1
:10848000EA460DF1040890F8205020208DF80000F5
:10849000202D3CD04748049900EB811BC5EBC5005B
:1084A00006EB800000F10801C0682768381A000256
:1084B000C21700EB1260001229D4E08900B3C8890A
:1084C000F0B9D1F8009003F02DF8B0F5C67F08BFE1
:1084D0000D200BD0A0F54070563808BF1C2005D0E9
:1084E000A0F500709F3814BF00203220411CA7EB7C
:1084F00009000002C21700EB12600012884206DB7E
:108500000BEB45008AF800504578202DC6D19AF82B
:10851000000088F800000498202D1CBF254901EBBD
:10852000801B3FD0C5EBC50006EB80076168D7F81C
:10853000089007F10800A9EB01010902CA1701EB35
:108540001261091222D4C08960B3E08950BBD4F80B
:1085500000A002F0E7FFB0F5C67F08BF0D200BD0EA
:10856000A0F54070563808BF1C2005D0A0F500705B
:108570009F3814BF00203220411CA9EB0A000002E2
:10858000C21700EB1260001288420BDA88F8005024
:10859000387E217C88427FF613AF0BEB450045788F
:1085A000202DBFD109B00120BDE8F08F8C1A00202A
:1085B0008C1600200C1A00202DE9F84F0F460646B5
:1085C00001EB47004B4999460844924690F82040F9
:1085D00020201070A1F58068202C1CBF464800EBBD
:1085E000871B38D0C4EBC40008EB800000F1080101
:1085F000C0683568281A0002C21700EB126000122A
:1086000029D4F08900B3C889F0B90868009002F055
:1086100089FFB0F5C67F08BF0D200BD0A0F54070D4
:10862000563808BF1C2005D0A0F500709F3814BF35
:1086300000203220411C0098281A0002C21700EBCB
:1086400012600012884206DB0BEB44008AF80040FF
:108650004478202CC6D19AF8000089F80000202C1C
:108660001CBF254800EB871A40D000BFC4EBC400F4
:1086700008EB80077068BD6807F10801281A00023E
:10868000C21700EB1260001222D4C88970B3F089BF
:1086900060BBD6F800B002F045FFB0F5C67F08BF5A
:1086A0000D200BD0A0F54070563808BF1C2005D017
:1086B000A0F500709F3814BF00203220411CA5EBAC
:1086C0000B000002C21700EB1260001288420DDAA4
:1086D00089F80040387E317C884202D80020BDE80D
:1086E000F88F0AEB44004478202CBFD10120BDE86C
:1086F000F88F00008C1A00200C1A00202DE9F041A0
:1087000082B0054614468846D08901AA694602F01F
:1087100011F802F039FD01F0F1FF0746204890F80A
:108720002D10202904D0C068401D20F07F4124E096
:10873000E08905F10906B0B103F026F898B902F016
:10874000F1FEB0F5C67F08BF0D200BD0A0F540703C
:10875000563808BF1C2005D0A0F500709F3814BF04
:10876000002032200644B8F1000F04D1009887425F
:1087700084BF381A064426F07F41D4E90020801ACD
:10878000084420F07F40C4E90010A94224BF02B091
:10879000BDE8F081A068401CA06002B0BDE8F08197
:1087A0008C1A00202DE9F04F97B017468B460546EE
:1087B00002F052FA044602F0E7FC0646BBF1010F54
:1087C00018BFBBF1020F05D040F65D114FF07000ED
:1087D00003F052F8F84901200860F84989680860F8
:1087E00000208DF84E000C90401E0D90F449C7EB10
:1087F000C70001EB800000F108010DF1380891E895
:108800000E1088E80E10806912900EA800F0C4FBCC
:108810000790EC48BDF84680808BADF84C00B8F16D
:10882000000F04BF002006900BD001200690E54801
:1088300090F82A0028B902F0A7FF002808BF0127F6
:1088400000D0002702F06EFEB0F5C67F08BF0D20F5
:108850000BD0A0F54070563808BF1C2005D0A0F5FD
:1088600000709F3814BF002032204FF00009CA4624
:108870000B90464538D90799DFF84C936FEA060C00
:108880006B4616AA01EB0C00494504D940F26F5122
:10889000702002F0F1FFCD498C4504DD4FF4AE614C
:1088A000702002F0E9FFCA498C4504DA40F27151A8
:1088B000702002F0E1FFC7498142DCBF00F5F700FC
:1088C000A0F1F85005DD0028BCBFA0F5F70000F1CD
:1088D000F850194601F02EFF00980E9920F07F40C5
:1088E0000090081A20F07F49002F18BFDDF82CA057
:1088F00005D19DF84C00002818BF4FF0020AB4F1D2
:10890000807F08D00E98001B0002C11700EB116099
:108910000012012801DA03200DE057B1A94890F8B0
:108920002B0030B19DF84C0010F1000A18BF4FF039
:10893000020A2546002082440E98A0EB090020F090
:108940007F42501E20F07F40411B0902CB1701EBF4
:1089500013610912514504DBB9F1000F18BF0E92E3
:108960002DE0B9F1000F05D09DF84D0020B902F0BF
:1089700001FC08B1AFB90CE02FB99DF84C000028FC
:1089800018BFAAF1020A4FF000098DF84C904E462C
:1089900007E09DF84C0020B100208DF84C00AAF1B2
:1089A000020A0E98A0EB0900401E20F07F40411BF8
:1089B0000902CA1701EB1261091251457EDB1497B7
:1089C00005464FF00009069F02F01EF8281A000223
:1089D000C11700EB11604FEA202A02F0A3FDB0F5A9
:1089E000C67F08BF0D200BD0A0F54070563808BFD9
:1089F0001C2005D0A0F500709F3814BF0020322045
:108A00000B30824520DABBF1010F02D0149840B13F
:108A100012E0B4F1807F1CD140F6DE01702002F03C
:108A20002BFFB4F1807F07D0601B0002C11700EB61
:108A300011600012042804DD2C46204602F00AF8DA
:108A400007E0002863DC04E02C46204602F002F830
:108A5000B946B4F1807F55D00E980F9A001B121BB7
:108A600020F07F4022F07F42012850D3B0F5000F64
:108A700098BFB2F5000F4AD8204613F0E2FF0799DD
:108A8000524A0D1A4FF0000AAA1A7AF1000218D3BE
:108A90004E4B421AD31A7AF1000312D34A4BAB421F
:108AA0003EBFC0F5902000F1F450451809D3934221
:108AB00031D2C1F5902101F1F45100E027E00844E2
:108AC0004542404FB87F58B3BBF1010F05D002209B
:108AD00002F0FCF9012002F0F9F9B0452CD2A5EB27
:108AE00006014FF0020002F03BF990B3B8F1000F1D
:108AF0001CBFA5EB0801012034D000BF02F030F903
:108B000038B32FE040F6F111702002F0B5FE17B037
:108B10000020BDE8F08F40F6C221702002F0ACFECC
:108B2000B04534BF304640461E30A842CCDB40F64C
:108B30000521702002F0A0FE0CD9A5EB0801012050
:108B400002F00EF928B1002E1CBFA91B022009D08B
:108B5000D4E730E056EA080004D040F64111702016
:108B600002F08AFE2946002002F0FAF818B30698AF
:108B70000126002804BF97F82B00002802D0B9F185
:108B8000000F33D097F82A0018B102F0D1FC87F813
:108B90002AA0B9F1000F2CD00B98201A20F07F41A9
:108BA000052002F0DDF8E0B397F82B00002808BF9D
:108BB00087F82B6025E00FE0080500403C0000200E
:108BC0008C1600208C1A0020FF7F841E0040420F6C
:108BD00000C0BDF00080841E022002F077F9012061
:108BE00002F074F917B00020BDE8F08F97F82A0062
:108BF00090B197F82B0020B1052002F067F987F8B3
:108C00002BA0A5EB0800A0F1190100290FDC40F60C
:108C10002E21702002F030FE02F0A6FC87F82A60B8
:108C2000B7E7FFE740F2F221702002F025FE0320B3
:108C300002F096F8C0B10F488068C0F800A00E4856
:108C4000C0F800A00CAC94E80F0038607960BA60FE
:108C5000FB6010AC94E80F0038617961BA61FB6188
:108C600017B00120BDE8F08F40F63621702002F0E9
:108C700003FE00003C000020080500402DE9F05FE5
:108C8000064608789074C87A5074887A10740889F7
:108C9000D081DFF8988170689A46A0FB0879144665
:108CA0000D46306813F0CDFEC11928784FEA680CE4
:108CB00049F10002A8F1010ECCF1000B68B1E08986
:108CC000677CC043D5F8049004F10C0260455FDD79
:108CD0004FF4AE61702002F0CFFDDFF85491D5E97A
:108CE000040311EB090A42F10009B0EB0A0A73EB25
:108CF000090945D2411A73EB020141D3C71B7068C1
:108D0000A060474505D3401CA7F1F457A7F590276D
:108D1000A060E0896D68C143667C781804F10C029C
:108D2000774504D940F26F51702002F0A5FD6145EE
:108D3000CEDC59452FDB8045DCBF00F5F700A0F104
:108D4000F85005DD0028BCBFA0F5F70000F1F85091
:108D5000214601F0EFFC206820F07F417819401C8B
:108D60002160002E08BF7A3003D0012E08BF4830A2
:108D700034D101F0C3FC20F07F406060BDE8F09F7B
:108D80003068401E20F07F40206000F57A70F4E7E4
:108D90000146584504DA40F27151702002F06CFD32
:108DA0008045DCBFA1F1F450A0F5902005DD00283E
:108DB000BCBF01F1F45000F59020214601F0BAFC4F
:108DC0002068002F20F07F4109F10100216008BFD9
:108DD0007A3008D0012F08BF483004D040F2246117
:108DE000702002F049FD01F089FC20F07F416160B4
:108DF0007068A060002122463068FFF77FFC32686F
:108E0000534621462869FFF725FA002818BFBDE818
:108E1000F09FD4E900213068891A20F07F4208448D
:108E200020F07F40C4E90020BDE8F09F0080841E50
:108E30000040420F70B51E4D95F82D00202818BF38
:108E400070BD95F82C2002EB4200284490F8204099
:108E5000202C27D0174B03EB821101EB44014978FA
:108E600080F82010FF2085F8290085F82D40214644
:108E7000022000F0CBF8002085F82800A8770E49E2
:108E8000C4EBC40001EB8000007E002808BF02F0A4
:108E9000FFFE002009494968002908BF70BDBDE8F0
:108EA000704008474FF44B71702002F0E5FC000061
:108EB0008C1A00200C1A00208C1600203C00002088
:108EC0002DE9F05FDFF8C08098F82C5005EB4500E5
:108ED000404490F82140202C08BFBDE8F09FDFF807
:108EE000ACB0DFF8ACA0AAF560790AEB85170726CD
:108EF00017F8140001280ED0042808BF02260AD053
:108F000005280CBF0326062805D040F6A8014FF01F
:108F1000700002F0B1FCBBF1000F18BFAFF300808E
:108F2000EFF3108072B607EB44014A7805EB450178
:108F3000414481F8212091F82220A24204BF20223E
:108F400081F82220C0B12A462146012000F05EF8B7
:108F5000C4EBC40109EB810059F821204068314677
:108F6000904798F82C5005EB4500404490F821407C
:108F7000202CBAD1BDE8F09F0648002818BFAFF3F7
:108F8000008062B6DFE700008C1A002000000000BD
:108F90000C1A00200000000010B50446006813F011
:108FA00050FD0246E089217B144B0844411C5018B7
:108FB0009A4204D940F26F51702002F05DFC104AD1
:108FC000914204DD4FF4AE61702002F055FC0D4A71
:108FD000914204DA40F27151702002F04DFC0A49CE
:108FE0008142DEBF00F5F700A0F1F85010BD002867
:108FF000BCBFA0F5F70000F1F85010BDFF7F841E44
:109000000040420F00C0BDF00080841EDFF858C051
:1090100010B500230CEB821C07281FD2DFE800F0FC
:10902000050505050404040001230CF81100002BBC
:1090300008BF10BD02EB42020C48024492F8220025
:1090400020280EBF82F821100CEB40004170202038
:109050000CEB4103587082F8221010BD4FF41A71C6
:10906000702002F009FC00000C1A00208C1A00206D
:109070002DE9F74F1746DFF858A102EB470050449F
:10908000884690F820400129254618BFB8F1020F04
:1090900005D040F66C214FF0700002F0EDFB4FF070
:1090A000000B202D44D09AF81E000026002808BF8F
:1090B000022601F0A9FC474BC4EBC40103EB81017C
:1090C0008A68C968121A091A22F07F4221F07F418A
:1090D000964299BFB2F5000FB1F5000F3E4A02EB80
:1090E000871923D9224609EB42014C78202C15D050
:1090F000C4EBC40103EB810CDCF80810DCF80CC0F5
:10910000091A21F07F41ACEB000C2CF07F4C8E4211
:109110009CBFB1F5000FBCF5000FE3D8202A05D0A5
:109120003B4620210420FFF759F80446AC420FD1FA
:109130009AF82E0020280FD00099DAF80800891C30
:10914000081A0002C11700EB11600012002803DDAD
:1091500003B00020BDE8F08F202D16D02A464146EE
:109160000098FFF71FFB00281FBF8AF82E5002202F
:1091700003B0BDE8F08F3B462A4620210420FFF7CC
:109180002DF803B00020BDE8F08F9AF82A0018B13E
:1091900002F0CEF98AF82AB09AF82B0020B1052007
:1091A00001F094FE8AF82BB0042001F08FFE01F04C
:1091B000FDFE20208AF82E0008488068C0F800B024
:1091C0000748C0F800B003B00120BDE8F08F0000F0
:1091D0008C1A00208C1600200C1A00203C00002065
:1091E00008050040064910B591F82D20202A1CBF23
:1091F000887710BD40F27A31702002F03DFB00000C
:109200008C1A00202DE9F04F694E07468DB096F874
:109210002D008846202855D096F82D0006F1080428
:10922000C0EBC000A6F5806909EB800A20208DF80C
:10923000200096F82C000AAA00EB4000304409A94F
:1092400090F82050F06802903068384401F072FACB
:10925000DAF80C000999652F084438D3554A0021E3
:10926000D21B71EB010232D32268821A22F07F42B4
:10927000B2F5000F2BD820F07F406060304684F8B4
:10928000108090F82C000DF1200A202D1CBF4A49B7
:1092900001EB801B50D000BFC5EBC50009EB800877
:1092A0006168D8F8086008F10800711A0902CA1745
:1092B00001EB126109122DD4C08900283CD0E0894D
:1092C00048B139E04FF43361702002F0D5FA0DB0A7
:1092D0000120BDE8F08F20680C9002F023F9B0F572
:1092E000C67F08BF0D200BD0A0F54070563808BFD0
:1092F0001C2005D0A0F500709F3814BF002032203C
:10930000411C0C98301A0002C21700EB12600012C8
:10931000884211DA8AF8005098F81810207C8142AF
:1093200005D8029860600DB00220BDE8F08F0BEB0D
:1093300045004578202DAFD1052001F0C7FD1C4C1C
:109340004FF0FF30606094F82C309DF820202021F1
:10935000202A03D00520FEF741FF04E003EB430081
:10936000204490F8200094F82C20134901EB82113E
:1093700094F82D2001EB42014870206838442060A9
:10938000FF2084F82900607E012805D1E068401E96
:1093900020F07F4001F0FEFB9DF82000202803D044
:1093A0000648407802F03CFB0DB00020BDE8F08F8D
:1093B0008C1A00200040420F0C1A00203C000020B4
:1093C00070B5244A92F82D1020293AD092F82D1029
:1093D000A2F58063C1EBC10103EB810C92F82C1064
:1093E00092F82C4001EB4101114491F82010A2F1B8
:1093F000800505EB8414202928D0C1EBC10503EBBF
:1094000085052D7E854284BF04EB41014978F2D861
:10941000C1EBC10103EB8101DCF80C008968146821
:10942000081A0002C11700EB1160001207D413F0F4
:1094300008FB04F16501884224BF001B70BD0020B9
:1094400070BD40F60231702002F016FA4FF0FF3086
:1094500070BD00008C1A0020064810B590F82D1041
:1094600020291CBF007E10BD40F62A31702002F07A
:1094700003FA00008C1A0020C0EBC00170B5074849
:10948000074A00EB810001690830A1FB0245FFF7A4
:1094900083FD001945F1000170BD00008C1600200D
:1094A0000080841EF8B56B4D6B4A05F5806401267B
:1094B00094F82A1008287CD2DFE800F0047097A9FD
:1094C000C741AEB319B902F04FF884F82A60E08AB8
:1094D00010B102F059F980B1FFF7ACFCFF2084F81D
:1094E00027006168B1F1FF3F03D0052001F038FC8F
:1094F00040B1607E012810D109E040F634017020AF
:1095000002F0BAF940F63901702002F0B5F9E068CE
:10951000401E20F07F4001F03DFB94F82D0094F8B0
:109520002D10C0EBC00005EB80004068C1EBC1010D
:1095300055F8212001B00121BDE8F040104794F812
:109540002B0040B119B902F00FF884F82A6000200E
:1095500084F82B00F8BDFFF76DFC4FF0FF30606022
:1095600094F827008DF800009DF8000088B194F869
:109570002D0094F82D10C0EBC00005EB8000406872
:10958000C1EBC10155F8212001B00621BDE8F04032
:1095900010474FF40561702002F06EF9FFF74AFCA6
:1095A00084F8266002F0F0F820B194F82A0030B177
:1095B00009E04AE040F65E01702002F05DF901F03A
:1095C000D3FF84F82A6094F82D0094F82D10C0EB96
:1095D000C00005EB80004068C1EBC10155F82120B7
:1095E00001B00021BDE8F040104701F0AFFDE08A76
:1095F00010B102F0C9F828B101F0BCFD002818BF75
:109600006677F8BD40F66801702002F035F913481E
:10961000066090680660F8BD1078BDE8F84002F07A
:10962000FFB9FFF707FC94F82D0094F82D10C0EB5C
:10963000C00005EB80004068C1EBC10155F8212056
:1096400001B00521BDE8F040104740F67B017020D5
:1096500002F012F98C1600203C00002008050040A2
:109660002DE9F34F8246F04895B00068EF4DC005F4
:10967000C00D0ED0103840B20028B8BF00F00F0067
:1096800000F1E020ACBF90F8000490F8140D400900
:109690000DD016984FF0000B0078002818BF012855
:1096A00018D040F204714FF0700002F0E5F895F820
:1096B0002D004FF0010B202807D01698007848B1F4
:1096C0004FF4E061702002F0D7F840F2FD617020A5
:1096D00002F0D2F8D64C24B1002140F20770AFF36B
:1096E00000800020CDE91000D249CAEBCA0001EB8E
:1096F00080004FF00109009024B1002140F2127067
:10970000AFF30080B9F1000F0AD000BF95F82C60CC
:109710004FF0000885F82980BBF1000F07D038E032
:10972000C548002818BFAFF3008062B6EEE73746A1
:10973000012020EA0706C148402200EB871100EB18
:10974000861013F0DAFA24B1002140F22F50AFF363
:10975000008007EB470106EB4600294428440A8CA9
:10976000028491F8221080F8221024B1002140F2E6
:109770003350AFF3008024B1002140F21C70AFF3EE
:10978000008095F829008DF808009DF80800002851
:10979000B2D124B1002140F22670AFF3008002A8BC
:1097A00001F038F9DDE90201CDE90E01334609AADD
:1097B0000EA81699FFF762FA24B1002140F22D702D
:1097C000AFF300809D4A0E9902EB861709A817F89F
:1097D0001A20012A18BF022A38D1099A0A9BA2EB43
:1097E000010222F07F42A3EB0101CDF8448021F079
:1097F0007F41022A64D3B2F5000F98BFB1F5000F84
:109800005ED84FF0010814AB13AA3146FEF7D4FE20
:1098100000285DD09DF84C109DF8502033468A42B8
:109820005AD00520FEF7DAFC07EB4A0148709DF894
:109830004C0020281CBF07EB400080F801A057D047
:10984000324651465FF00300FFF7E0FB24B10021F0
:1098500040F23270AFF300807948002818BFAFF3B0
:109860000080EFF3108972B624B100214FF4E76055
:10987000AFF3008095F829008DF808009DF80800E6
:1098800000287FF439AF24B100214FF4E860AFF332
:10989000008009AF009897E80E1000F10807B8F1B2
:1098A000000F87E80E100D99816153D024B100217B
:1098B00040F24D70AFF30080BBF1000F3AD11FE0D2
:1098C000324651460420FFF7A1FB4FF00108BDE7E7
:1098D000324651460420B7E7202919BF07EB410063
:1098E000407806EB4600284408BF90F820009BE72C
:1098F00006EB4601294481F820A0CDF844809FE77B
:10990000119810F0FF0F15D095F82D00202811D1D7
:1099100024B1002140F25270AFF3008032460221A0
:109920000E98FFF7A5FB109020B916980078F0B1BB
:1099300001282BD024B1002140F26F70AFF30080DA
:10994000FF20BBF1000F18BF85F8290027D000BF0A
:109950004FF0010824B100214FF4F060AFF3008014
:109960001098384E022823D0012829D02DE024B1A8
:10997000002140F25A70AFF3008095F82C20514638
:109980000420FFF743FB4FF00108E3E7002C3FF40E
:10999000B3AE002140F26570AFF30080ACE695F8FD
:1099A0002C200121914385F82C1085F82900CFE760
:1099B000A8680E99401A13F044F8716821B904E0C0
:1099C00071684FF0FF3001B18847B9F1000F24D022
:1099D00024B100214FF4F260AFF30080B8F1000F22
:1099E00011D095F82C0000EB4000284490F821009D
:1099F000202808D024B1002140F29770AFF30080F6
:109A0000707802F00DF824B1002140F29C70AFF3A1
:109A1000008017B04046BDE8F08F0748002818BF07
:109A2000AFF3008062B6D3E704ED00E08C1A0020AB
:109A3000000000008C160020000000000C1A00201E
:109A4000000000003C0000202DE9F14FC9488AB019
:109A50000068C005C00D11D0103840B20028B8BF52
:109A600000F00F0000F1E020ACBF90F8000490F887
:109A7000140D400908BF4FF0010B01D04FF0000B4F
:109A80000A98007800281EBF00200BB0BDE8F08FB8
:109A90004FF0000AB84DB94CD14625B1002140F233
:109AA000B950AFF3008094F82C6084F829904FF0FF
:109AB000000825B1002140F2BE50AFF30080BBF199
:109AC000000F23D13746012020EA0706AC48402288
:109AD00000EB871100EB861013F00FF925B1002180
:109AE00040F22F50AFF3008007EB470106EB460032
:109AF000214420440A8C028491F8221080F822101C
:109B000025B1002140F23350AFF3008025B1002190
:109B100040F2C650AFF3008008A800F07BFFDDE9FB
:109B20000801CDE9060133466A4606A80A99FFF7FF
:109B3000A5F825B1002140F2CC50AFF3008094F895
:109B40002D00202819D0E0680099091A0902CA17C7
:109B500001EB1261091210D5DDE90021891A20F00C
:109B60007F43084420F07F40CDE90030934202D289
:109B70000298401C02904FF001084DB1002140F2C4
:109B8000DF50AFF30080002140F2E550AFF30080DA
:109B900000990698019A091A101A21F07F4120F0C5
:109BA0007F40B1F5000F98BFB0F5000F03D8BBF1AF
:109BB000000F0CD103E0BBF1000F39D0C0E03346F9
:109BC00069467048069AFEF745FB48EA0008B8F176
:109BD000000F23D0009812F034FFBDF80E109DF84E
:109BE0000C20694B1144491C4218984256D86548CC
:109BF00081427CDC404281427ADB581C9042DCBFCF
:109C000002F5F702A2F1F85205DD002ABCBFA2F569
:109C1000F70202F1F8520A98C0E904294FF0010A4C
:109C2000002D7CD000214FF4BF60AFF3008087E0AF
:109C300007980290BDF80E0008AA05A9DDF8188063
:109C400000F078FD01F0A0FA00F058FD074694F806
:109C50002D00202827D0E068401D20F07F4000BF65
:109C6000DDE90021891A0090084420F07F4001902E
:109C70000098404502D20298401C02901F208DF8A7
:109C80000C00009812F0DDFEBDF80E109DF80C20BF
:109C90003D4B1144491C421898422AD940F26F5159
:109CA000702001F0E9FDBDF80E0008F10906B0B121
:109CB00001F06AFD98B901F035FCB0F5C67F08BF28
:109CC0000D200BD0A0F54070563808BF1C2005D0E1
:109CD000A0F500709F3814BF48463220064405980E
:109CE000874284BF381A064426F07F40B8E703E075
:109CF0000AE02448814204DD4FF4AE61702001F097
:109D0000BBFD2248814204DA40F27151702001F01B
:109D1000B3FD1F489042D8BF02F5F70200E00FE004
:109D2000D8BFA2F1F85205DD002ABCBFA2F5F702A8
:109D300002F1F8520A984FF0010AD046C0E904290E
:109D40001AEA080F09D00A981149029BD0E90420A9
:109D5000E3FB01200A99C1E9042094F829008DF859
:109D600014009DF8140000287FF497AE0BB0504605
:109D7000BDE8F08F04ED00E0000000008C1A002028
:109D80000C1A00200040420FFF7F841E00C0BDF06F
:109D90000080841E2DE9F14F944D8CB095F82C0075
:109DA0000020099006900120A5F180094FF00008DD
:109DB00007468F4CCDF81C0000F026FE089024B119
:109DC00000214FF4F660AFF30080079800283CD0E4
:109DD00085F8298024B1002140F2B570AFF30080EE
:109DE00095F82CA0402227EA0A0609EB861009EB19
:109DF0008A11834612F081FF24B1002140F22F50D6
:109E0000AFF3008006EB46000AEB4A0128442944E0
:109E100000900A8C028491F8221080F8221024B15C
:109E2000002140F23350AFF3008095F829008DF8FF
:109E300008009DF8080078B1002C1CBF002140F2FA
:109E4000BB70B9D0AFF30080B6E76A48002818BFEE
:109E5000AFF3008062B6BBE724B1002140F2BF70CF
:109E6000AFF300800C981BF8100003287DD1009AF6
:109E70000C9992F82000884214BF4FF0000A4FF06E
:109E8000010A02F1200C8346202209EB861303E02D
:109E9000024603EB42004078884202D020280AD0D4
:109EA000F6E7202807D0834507D103EB4B00407825
:109EB0008CF8000007E040460CE003EB400003EBA9
:109EC00042014078487024B1002140F29A40AFF33B
:109ED00000803846C34610EA0A0F18BFBB46002868
:109EE0004FD024B1002140F2C470AFF3008032465D
:109EF00001200C99FFF78AF824B1002140F2CD70BF
:109F0000AFF300803C48002818BFAFF30080EFF3A8
:109F1000108072B6079024B1002140F2D270AFF3E6
:109F2000008095F829008DF808009DF8080038B1E8
:109F3000002C1CBF002140F2D6703FF43DAF81E7FA
:109F4000BBF1000F0AD095F82D00202806D132462B
:109F500002210898FFF78CF80690F8B124B100218F
:109F600040F2EA70AFF3008000E00AE095F82C00C0
:109F700027EA000085F82C00FF2085F82900012041
:109F8000099024B1002140F2F370AFF300800698ED
:109F90001A4E022809D001280FD013E094B10021F5
:109FA00040F2E570AFF30080ECE7A9680898081A62
:109FB00012F047FD716821B904E071684FF0FF307D
:109FC00001B18847079848B124B1002140F6070045
:109FD000AFF3008009980DB0BDE8F08F0548002868
:109FE00018BFAFF3008062B6EEE700008C1A0020C5
:109FF0000000000000000000000000003C00002005
:10A00000202824BF00207047C0EBC000034B43F85A
:10A01000201003EB80004260012070478C16002066
:10A0200010B5202811D20E4991F82C30A1F18002F0
:10A0300002EB831C1CF810303BB191F82C3002EB82
:10A04000831212F81020012A01D0002010BD91F8CF
:10A050002C2001460020FEF7D9FF012010BD000092
:10A060008C1A00202DE9F84F864E804696F82C0079
:10A07000A6F1800707EB801010F81800002871D0B7
:10A0800096F82C90804D25B1002140F67630AFF344
:10A09000008007EB891414F81800012818D0C0B20A
:10A0A00004281CBF0528062861D02DB14FF00001FF
:10A0B00040F68230AFF3008001F008FD25B10021A9
:10A0C00040F68630AFF3008014F818000128E6D17E
:10A0D000012425B1002140F68D30AFF30080002C23
:10A0E0004BD0002086F8290025B1002140F692309F
:10A0F000AFF3008096F82CB0012020EA0B0907EBA3
:10A100008B1107EB8910402212F0F7FD25B10021D9
:10A1100040F22F50AFF3008009EB490000EB060A34
:10A120000BEB4B003044018CAAF8201090F8220071
:10A130008AF8220025B1002140F23350AFF30080AD
:10A1400096F829008DF800009DF80000E0B1002D80
:10A150001CBF002140F69830BBD000BFAFF3008099
:10A16000B7E7FFE740F66D31702001F085FB4A4606
:10A1700041460120FEF74AFFA0E74448002818BFE7
:10A18000AFF3008062B6ACE725B1002140F69C3009
:10A19000AFF300809AF821300AF1210140461C46B5
:10A1A0004FF0200B07EB89120AF1220A04E0A346C4
:10A1B00002EB4B0C9CF80140844202D0202C2BD0A7
:10A1C000F5E7202C28D0A34204D102EB43004078CD
:10A1D000087005E002EB440002EB4B014078487048
:10A1E000BAF1000F11D025B1002140F29240AFF337
:10A1F00000809AF80000A04207D125B1002140F26A
:10A200009540AFF300808AF800B05DB1002140F2C4
:10A210009A40AFF3008000E025B100214FF43A608E
:10A22000AFF300801A48002818BFAFF30080EFF3A7
:10A23000108472B696F829008DF800009DF8000091
:10A2400038B1002D1CBF002140F6A6303FF441AFCD
:10A2500084E786F82C90FF2086F8290054B1002D61
:10A2600008BFBDE8F88F002140F6B330AFF300809F
:10A27000BDE8F88F0548002818BFAFF3008062B62C
:10A28000EDE700008C1A0020000000000000000034
:10A290000000000070B50D46064601F063FA0F4855
:10A2A00090F82C200024803800EB821010F8141055
:10A2B00029B1611CCCB2202CF8D3202070BD0848F5
:10A2C000C4EBC40140F8216000EB810021464560E9
:10A2D0000120FEF79BFE204670BD00008C1A002076
:10A2E0008C1600202DE9F84F00F08EFB054600F09B
:10A2F0005DFE604C6068B0F1FF3F1CBF4FF0FF3067
:10A300006060A07F5C4F90B9D4E90210401A20F041
:10A310007F404FF40C7112F0C1FBE1680844281A29
:10A320000002C11700EB11600012C00F12D0607E56
:10A3300020B394F827008DF800009DF80000E8B1E4
:10A3400000F090FC94F82800F0B140F2D531702074
:10A3500001F092FA94F82D0094F82D10C0EBC00093
:10A3600007EB80004068C1EBC10157F821200821AC
:10A37000904740F2BD31702001F07EFAE81C20F0D9
:10A380007F4000F067FBDDE7012084F8280094F8A7
:10A390002D00202821D094F82D90202084F82D0025
:10A3A00084F82E00002684F8266084F82760266052
:10A3B00000F0F0FE207794F82C8008EB480000EBCA
:10A3C000040A9AF82000202812D0C0EBC00007EB46
:10A3D0008000817E012905D00AE04FF4767170205B
:10A3E00001F04AFA00F1080201212846FEF786F939
:10A3F000424601212846FEF73BFE0700F8D01F48E1
:10A4000000EB881010F81900022804D14246494692
:10A410000620FEF7FBFDFF2084F829009AF82100B2
:10A42000DFF85C8020281CBF98F8010001F0F8FAE2
:10A43000207F18B100F08AFE26776677022F0FD0B2
:10A44000012F18BFBDE8F88F4FF0FF30D8F8041087
:10A45000002908BFBDE8F88F01B0BDE8F04F0847FC
:10A46000A068401B12F0EDFAD8F804100029F3D1CF
:10A47000BDE8F88F8C1A00208C1600200C1A0020E2
:10A480003C00002030B5364C054683B094F82D00D2
:10A49000202808D06068B0F1FF3F09D040F6A12124
:10A4A000702001F0E9F94FF42A61702001F0E4F91D
:10A4B00094F82D002B49C0EBC00001EB8000083060
:10A4C000FEF76AFD0146284A2844914204D940F229
:10A4D0006F51702001F0D0F924498D4204DD4FF412
:10A4E000AE61702001F0C8F921498D4204DA40F2D2
:10A4F0007151702001F0C0F91E498142DCBF00F5A6
:10A50000F700A0F1F85005DD0028BCBFA0F5F7006A
:10A5100000F1F85001AA694600F00CF99DF804001A
:10A520000F288CBF012000200099084420F07F41B3
:10A53000616094F827008DF800009DF80000002865
:10A5400004BF03B030BD052000F00AFC00281CBF8A
:10A5500003B030BD40F6A821702001F08DF9000055
:10A560008C1A00208C160020FF7F841E0040420FB2
:10A5700000C0BDF00080841E70B51C4C202184F802
:10A58000201084F8211084F82210002084F82C0078
:10A5900084F82D10421EC4E90002A07784F826003A
:10A5A00084F827002077607784F82E1084F82A003A
:10A5B00084F82B00A4F182011022887001F8040FA6
:10A5C000521EFAD100F0F0FD094D012684F82860F2
:10A5D000FF202870074801F005FA687001F060FA62
:10A5E000A86000F06BFD84F82F6070BD8C1A00200D
:10A5F0003C000020C18E020070B50546012000FA23
:10A6000005F40E46002A08BF08480CD0002000F0D0
:10A610003BFDE90001F1804101F5F831C1F8100579
:10A62000C1F814650248046070BD000008F50140DF
:10A6300004F5014000B583B0684600F0EBF90098DE
:10A6400012F0FFF9019A034B0021E2FB030103B072
:10A6500000BD00000080841E70B5064682B01D4615
:10A66000104612F0EEF90446684600F0D3F920498E
:10A670000198A0FB0102301A44BFA0F5F70010F1C9
:10A68000F85004D540F6C831702001F0F5F8884242
:10A6900004DB40F6C931702001F0EEF8154A211AAA
:10A6A00000238A1A73F1000218D3DFF848C0021B96
:10A6B000B2EB0C0C73F1000310D30F4B8B423EBF77
:10A6C000C0F5902000F1F450011907D393420AD24B
:10A6D000C4F5902101F1F4510844414201F10F0009
:10A6E00002B0281A70BD40F6C221702001F0C4F8F3
:10A6F0000080841E0040420FFF7F841E410B48F201
:10A70000376251430A0C094B510202FB030208480D
:10A71000504300F586306E30400D5B4210FB03F372
:10A72000B2EB532F88BF491C08447047F7C2FFFFA4
:10A730006F0C0100430B48F2376C03FB0CF330B491
:10A740001B0CDFF844C05C0203FB0C030F485843AA
:10A750004FEA505C04EB0C0043F609541CFB04F474
:10A7600004F5807C43F60855A3EB5C2C2C440CF0DC
:10A77000FF0CB3EB542F84BF4FF0000C401C08605B
:10A7800082F800C030BC7047F7C2FFFF6F0C0100B9
:10A790002DE9F0413B4DD5F80403DFF8EC8010F4CF
:10A7A000803F4FF400664FF0E0274FF0000419D0CF
:10A7B00036480068B0B1C5F84041C7F88062D5F8A6
:10A7C0004005D8F80010401A20F07F40022802D33C
:10A7D000B0F5000F06D94FF48030C5F80803042007
:10A7E000FEF760FED5F8040310F4003F1AD02848A5
:10A7F0000068B8B1C5F84441C7F880622548D0F870
:10A800004005D8F80010401A20F07F40022802D3FB
:10A81000B0F5000F06D94FF40030C5F80803052045
:10A82000FEF740FED5F8040310F4802F1AD01A4822
:10A830000068B8B1C5F84841C7F880621748D0F839
:10A840004005D8F80010401A20F07F40022802D3BB
:10A85000B0F5000F06D94FF48020C5F80803062094
:10A86000FEF720FED5F80401002808BFBDE8F081FE
:10A87000C5F80441C7F880620948C168491CC16035
:10A88000BDE8F08100B0004004B5004040B1004098
:10A8900044B1004004B0004048B1004008B000405E
:10A8A000480000202DE9F041384D2878042868D070
:10A8B000A81C0122017859B1012908BF6A7002D091
:10A8C0006978002958D002210170407800F0FEFA22
:10A8D0002F4CD4F804034FF0000810F4002F4FF46D
:10A8E00080774FF0E0260AD02A48006838B103206C
:10A8F00000F0ECFAC6F880720320FEF7D3FDD4F81E
:10A90000040310F4802F0AD02348006838B10220D5
:10A9100000F0DCFAC6F880720220FEF7C3FDD4F81E
:10A92000040310F4003F0AD01C48006838B101202D
:10A9300000F0CCFAC6F880720120FEF7B3FDD4F81F
:10A94000040310F4803F08BFBDE8F081144800689C
:10A95000002808BFBDE8F081002000F0B7FAC6F873
:10A96000807204202870C5F80480C4F80082BDE815
:10A97000F0410020FEF796BD40F29F416C2000F0B0
:10A980007BFFBDE8F0410720FEF78CBD48000020AA
:10A99000008000404C8100404881004044810040DC
:10A9A00040810040012211024FF0E0230020C3F853
:10A9B000801103F5C073BFF34F8FBFF36F8FC3F8E0
:10A9C00000110E4941F8042F431EC1F80433C1F8A9
:10A9D0003C05C1F83C010A4BC3F84005C1F84001F1
:10A9E0001B1DC3F84005C1F844011B1DC3F84005F9
:10A9F000C1F84801CA6003494870704700800040B0
:10AA000004800040480000200148006870470000B2
:10AA100004B5004030B4EFF3108C72B600250B4B38
:10AA20000B4A00BFD3F80415D3F804412CB1D16808
:10AA3000491CD160C3F80451F4E7D268BCF1000F9F
:10AA400000D162B6C0E9001230BC704700B00040CF
:10AA5000480000202DE9F047464E0546B71E3378E2
:10AA6000B968012B04BFA942BDE8F0874FF0404010
:10AA7000414A1060424A4148C2F8080302F1040CFE
:10AA80004FF00004002B62D03E48C2F84803CCF8D7
:10AA90004045C2F8444100BFD2F848014FF0E029D8
:10AAA0004FF00108002801BFD2F8040100284FF43C
:10AAB0000060C9F880024FF48030C2F80803C2F881
:10AAC0004803C2F840413048D0F800C0A5EB0C0C58
:10AAD0002CF07F4CBCF1020F44D3BCF5000F41D8E1
:10AAE000C2F840554FF4803CC2F844C32BB1026811
:10AAF0008A1A22F07F42022AF9D3C7F804803C70F8
:10AB0000FFF750FF2148D0F8041564F30101C0F8A5
:10AB10000415D0F80825022161F30102C0F80825C8
:10AB20000421C0F81015C0F80C807968C0F8001234
:10AB30008015C9F88002C9F800011549C0050860F0
:10AB40000420BD60707086F80080BDE8F087C2F810
:10AB50004803C2F84045C2F84041CCF84045C2F82D
:10AB6000444199E70020C2F8400540F293216C204F
:10AB700000F082FE4A00002008F50140FDFFFBFFC7
:10AB800000B00040FDFFFAFF04B500400080004027
:10AB900004F5014070B52A4CA168814214BF01221E
:10ABA0000022DFF8A0C09CF80050022D02D0002A3D
:10ABB00034D002E0002A08BF70BD62789AB3224BFD
:10ABC0004FF080421A60214B9213C3F80823C3F858
:10ABD00048230022C3F840211D4A1668861B26F030
:10ABE0007F46022E24D3B6F5000F21D8C3F84005C6
:10ABF0004FF48036C3F844632DB11368CB1A23F0A9
:10AC00007F43022BF9D3134B02214A071A60A0603D
:10AC100004208CF801008CF8001070BD40F2A121D6
:10AC20006C2000F029FE40F2A5216C2000F024FEEB
:10AC30000020C3F8400540F2B1216C2000F01CFE5A
:10AC4000480000204A00002008F5014000B0004004
:10AC500004B5004004F501400148806870470000D9
:10AC6000480000202DE9F0413648354AC0F8082355
:10AC7000DFF8D4C0031D00219CF8004084B1334AA2
:10AC8000C0F84823C3F84015C0F84411D0F8482153
:10AC90000123002A04BFD0F80401002811D10AE0E2
:10ACA000C0F84823C0F84015C0F84011C3F840155B
:10ACB000C0F84411EAE74FF0E0224FF40060C2F818
:10ACC0008002022C04D040F2BD216C2000F0D4FDA3
:10ACD0001F4E30681F4CC01C20F07F40A2681E4DE4
:10ACE00090420BD03768D71B27F07F47042F05D33E
:10ACF000B7F5000F02D8FFF7ADFE1BE03068101A61
:10AD000020F07F40022813D3B0F5000F10D8134A6B
:10AD10004FF080401060636021706B60EB6040001A
:10AD2000111F086004208CF801008CF8003001E04D
:10AD3000636021706068C5F80002BDE8F081000022
:10AD4000FDFFFBFF00B000404A000020FDFFFAFFBE
:10AD500004B50040480000200080004008F5014094
:10AD60002DE9F041544A0025012492F800C053789F
:10AD70004FF4A07607287DD2DFE800F00404040435
:10AD8000585858004D4A9768B7F1807F04BF5278F1
:10AD9000002A03D0BCF1020F05D026E040F24D316D
:10ADA0006C2000F069FD1A1FD2B206EB820202F19C
:10ADB000804606F530460022BCF1010F03D0BCF1FD
:10ADC000020F08D00EE0042B24BF3768002F08BF05
:10ADD0004FF0004206E0042B24BF3768002F08BF65
:10ADE00042F0804212F0804FE5D1DFF8D4C000F18C
:10ADF000100204FA02F2CCF808234FF0400303EBF0
:10AE00008003DBB263441C600CEB8000D0F840355B
:10AE1000A1EB030323F07F43032B26BFC0F84015AB
:10AE2000CCF80423C0F8405537D23CE0BCF1000F09
:10AE300006D0834204D140F26D316C2000F01CFD3D
:10AE4000021FD3B2032B04D34FF4E4716C2000F043
:10AE500013FDDFF870C003F1100204FA02F2CCF81F
:10AE60000823CCF8482306EB83034CF80350164B19
:10AE70001B6800E01AE0001FCB1A23F07F43C0B22A
:10AE80000CEB8000022B0BD3B3F5000F08D8C0F8F1
:10AE90004015CCF80423CCF844230120BDE8F08110
:10AEA0000021C0F840150020BDE8F08140F271316A
:10AEB0006C2000F0E1FC00004A0000204800002067
:10AEC0000080004000B0004004B500402DE9F84388
:10AED000012600274FF4A078072851D2DFE800F0C0
:10AEE000040404041919190000F1100106FA01F212
:10AEF0002649C1F8082301EB80030022C3F840254E
:10AF000008EB80028F50224951F820000090BDE8E4
:10AF1000F883204D011FCCB2297879B16A7882423A
:10AF20000CD11D4A4FF040401060012908BFFFF7C7
:10AF300039FD2F7019494FF080708860184904F16D
:10AF4000100006FA00F0C1F80803C1F84803A00099
:10AF50000844D0F84005134A1268801A20F07F4058
:10AF6000022807D301EB84020020C2F8400508EB59
:10AF700084000F500C4850F824000090BDE8F8837E
:10AF800040F2F5316C2000F077FC000000800040BA
:10AF9000408100404A00002008F5014048000020A0
:10AFA00000B0004004B5004040B100402548244AAC
:10AFB000C0F808232449031D91F800C00021BCF10A
:10AFC000000F10D0214AC0F84823C3F84015C0F83C
:10AFD000441100BFD0F84821002A04BFD0F8040172
:10AFE000002811D10AE0C0F84823C0F84015C0F885
:10AFF0004011C3F84015C0F84411EBE74FF0E022D0
:10B000004FF40060C2F8800211484FF0FF32C0F8E0
:10B010000823C0F84015C0F8401100F10402C2F83E
:10B020004015C0F8441102F10402C2F84015C0F8FE
:10B03000481102F10402C2F84015C0F84C117047E3
:10B04000FDFFFBFF00B000404A000020FDFFFAFFBB
:10B050000080004010B507280DD2DFE800F004049E
:10B06000040406060600064902E0001F0549C0B2B6
:10B0700001EB800010BD40F295316C2000F0FCFB2C
:10B080004081004040B1004010B507280DD2DFE8F4
:10B0900000F00404040406060600064902E0001F4E
:10B0A0000549C0B201EB800010BD40F295316C2023
:10B0B00000F0E2FB4081004040B1004070B51F4805
:10B0C000002404210470801E01708905C460816021
:10B0D000FFF768FC01254FF0E02CEB02CCF8803143
:10B0E000BFF34F8FBFF36F8FCCF8803214484560A9
:10B0F000856014490A68002AFCD1511EC0F8081363
:10B10000C0F84813C0F84045C0F840410E49C1F8A6
:10B110004045C0F84441091DC1F84045C0F84841C8
:10B12000C0F80441CCF8003105604FF48271C0F8DA
:10B1300044130221C0F8041370BD00004A0000202F
:10B1400000B0004004B5004004B00040084890F949
:10B1500000000028B8BF704700F01F01012202FA6A
:10B1600001F14009800000F1E020C0F800127047B2
:10B17000FC0400200348007803280CBF01200020B5
:10B1800070470000E8040020014840887047000034
:10B19000E804002003480078022816BF0328012095
:10B1A00000207047E804002002480021017041801F
:10B1B00070470000E80400202DE9F041164C607A49
:10B1C000002827D04FF480718D05284611F08AFCA5
:10B1D00080464FF48271284611F084FC0026074611
:10B1E000B8F1000F09D00120C5F80803207920B17B
:10B1F0002671E06908B18047E66137B1C5F804619E
:10B200000220C5F8080300F06BFA4046BDE8F041A3
:10B2100000F058B8BDE8F0815800002010B511F0DA
:10B220000BFD30B911F029FD18B911F05CFD0028B3
:10B2300002D002490220086010BD0000340C00401A
:10B2400070B500F091F900F09FFA094C4FF080457D
:10B2500030B1FFF7E3FF012028610420A07204E071
:10B260000320A0720120C5F804030020E07170BD26
:10B270005800002070B5124CA079E0B1E179401E71
:10B28000814218DA00F080FA054600F069FBA179E6
:10B29000012902D9E179491CE1710DB1616900E030
:10B2A0002169411A022902DA11F1020F07DC0DB1FE
:10B2B000606100E02061BDE87040FFF7C1BF70BD74
:10B2C000580000202DE9F04706464FF080454FF426
:10B2D0008671284611F006FC80464FF48871284696
:10B2E00011F000FC274C8246277804F1080011F089
:10B2F0006DFC10B140F2B91116E04FF0010946B1F2
:10B30000A07A032805D10420A072FFF787FFC5F8B3
:10B3100010900026B8F1000F18D0C5F80C61A07A83
:10B32000042804D040F2CB116D2000F0A5FA11F0F2
:10B3300083FC28B911F0A1FC10B911F0D4FC08B1BC
:10B34000114806600220A07200F0F2F8BAF1000F76
:10B3500008D0C5F81061A07A022801D1FFF78AFF52
:10B36000C5F814903FB12670A07A022801D1FFF7EA
:10B3700067FF00F0DDF8BDE8F0470248083011F043
:10B380003CBC000058000020340C00402DE9F04780
:10B390005F4C00270646A761427881780078E0720A
:10B3A0006271A171E7714FF001084FF080450528E7
:10B3B00025D2DFE800F0100306202200C4F8188030
:10B3C00009E000F0D1F80121284611F090FB002897
:10B3D000F9D00220A06111F0B6FBB0B100F0EEF997
:10B3E000217E01F0030188420FD1B07950B10220D3
:10B3F000C5F8040370E04748ECE74748EAE740F245
:10B400003A314DE000F0AEF966E0C5F80C804FF43B
:10B41000827AC5F80471A069C5F8180511F0F8FB27
:10B4200040B911F0FFFB28B911F013FC10B911F06D
:10B4300024FC38B14FF08050D0F844023749C0F3B3
:10B440004230086011F0E4FB40B911F0EBFB28B981
:10B4500011F0FFFB10B911F010FC18B12F49103199
:10B46000C1F80080C5F808800220C5F80403B0794F
:10B4700090BBD5F8040310F0020F0FD0DFF8A090B6
:10B48000D9F80010C94341F3001101F10108D9F8BE
:10B49000001041F01001C9F8001007E040F2FB2154
:10B4A0006D2000F0E9F900BF00F010FB514628467E
:10B4B00011F018FB0028F7D000F054F9B8F1000F94
:10B4C00005D1D9F8001021F01001C9F800100220B0
:10B4D000C5F80803C5F80471A07970B1307860B977
:10B4E00000F052F9064600F03BFA6FF0004116B149
:10B4F000C4E9041001E0C4E904010121284611F067
:10B50000F6FA08B100F03AF9A772BDE8F08700003A
:10B510005800002001000200010003003C0500402B
:10B5200010ED00E00148C08970470000580000207D
:10B5300010B5EFF3108472B60A48417829B141780A
:10B54000491E4170417829B108E04FF48E716D2099
:10B5500000F092F9807808B900F024F9002C00D1AD
:10B5600062B610BD5800002010B5EFF3108472B61B
:10B5700006484178491C41704078012801D111F0FA
:10B58000CDFA002C00D162B610BD0000580000209A
:10B59000054810B5C17821B100210171C170FFF7D4
:10B5A000C7FF002010BD00005800002070B50C4CF3
:10B5B000E17861B90125E570E061FFF7D5FF00F0A2
:10B5C000E3F830B1E06910B180470020E06100206D
:10B5D00070BD4FF080402571C0F80453F7E70000BC
:10B5E000580000202DE9F04105006FF015003FD014
:10B5F000297804293CD8002969783BD0002937D123
:10B60000A978002934D1002011F037FA002011F078
:10B6100027FA4FF080484FF0FF31C8F80813002692
:10B62000C8F80061C8F80461C8F80C61C8F8106176
:10B63000144C6670A888A08111F067FA012708B140
:10B64000E77067700121404611F051FA08B100F02F
:10B6500095F840F2F550E0812846FFF797FE6772B3
:10B66000002011F0FDF94FF0E0213046C1F80071E3
:10B67000BDE8F0810029FBD02029F9D8A97821293B
:10B68000C1D9F5E7580000200148808970470000C3
:10B690005800002010B50D4811F098FA0B490839F0
:10B6A00048B1012008704FF0E021C1F80002BDE868
:10B6B0001040FFF759BF887A022801D1FFF7C0FD7B
:10B6C000BDE81040014811F098BA00006000002069
:10B6D0000248807A002800D00120704758000020DE
:10B6E000F8B51F4DE87A00280FD1287E00F003003E
:10B6F00011F019FA002808D0EFF3108172B6FFF7A5
:10B70000E7FF18B1002900D162B6F8BD0126AE727C
:10B7100001B962B618204FF08044C4F80803A6614E
:10B720004FF42070ADF80000BDF80000411EADF8E8
:10B730000010F9D20027C4F80C71C4F81071084841
:10B74000083011F056FA2F70FFF77AFD66616879BC
:10B7500000F07F00C4F838051820C4F80403F8BDD1
:10B760005800002010B5044C207E00F0030011F0BA
:10B77000DAF90028F8D010BD580000200149012056
:10B7800008707047FD0400204FF08040D0F80001A1
:10B7900018B903480078002800D001207047000045
:10B7A000FD0400204FF08040012141600021C0F8DD
:10B7B0000011014801707047FD0400200248006834
:10B7C00000F00300704700001C04004010B531B1C8
:10B7D000012907D040F2023105A000F021F8D0F88D
:10B7E000140401E0D0F8080400F0010010BD0000CE
:10B7F0006E72665F636C6F636B2E6800BFF34F8F72
:10B8000005480168054A01F4E06111430160BFF396
:10B810004F8F00BFFDE700000CED00E00400FA05CB
:10B8200072B6034A526802B19047FFF7E7FF000083
:10B8300078000020064810B5002101600121016058
:10B84000084611F097F9BDE81040012011F085B9C4
:10B85000FC1F0040074810B501214160891EC0F857
:10B8600008130C2011F086F9BDE810400C2011F0EF
:10B8700074B9000000C000400EB572B60F4A55689A
:10B88000D5B1002203466E460A2403E0B0FBF4F073
:10B89000521CD2B20028F9D1B05409E0B3FBF4F045
:10B8A00004FB1030B3FBF4F3521ED2B23030B0546C
:10B8B000002AF3D13046A847FFF7A0FF7800002008
:10B8C0002DE9F041184C0646174660780D4618B130
:10B8D0004FF0FF30BDE8F081FCF762FB06B9134E74
:10B8E00067602570FFF7A6FFFFF7B4FF3046FFF74C
:10B8F00079FE0600EED1FEF73FFEFFF7F1FE10F0F5
:10B90000F8FF284611F029F90120002D09DB05F088
:10B910001F0100FA01F16A09920002F1E022C2F867
:10B92000001160703046D5E77800002096CB030008
:10B93000014840787047000078000020074890F9DF
:10B940000000002809DB00F01F020121914040099E
:10B95000800000F1E020C0F800127047780000205D
:10B960002DE9F04101264FF0E02231034FF00008AD
:10B970004046C2F88011BFF34F8FBFF36F8F164C54
:10B98000C4F800010C2011F014F9144D2868C043CC
:10B9900040F30017286840F010002860C4F80463E2
:10B9A00026607F1C02E000BF00F090F8D4F8000190
:10B9B0000028F9D01FB9286820F010002860084836
:10B9C00005686660C4F80863C4F800810C2011F0B3
:10B9D000F0F82846BDE8F08100C0004010ED00E01E
:10B9E00008C5004010B5024605200C4904E000BF20
:10B9F00001EBC0031B7933B1401EC0B2F8D248211D
:10BA00006920FFF739FF41F8302001EBC001002227
:10BA10004A718A7101220A7110BD0000BC1A00200F
:10BA200010B5052801D3582106E00A4901EBC000F2
:10BA30000179012903D059216920FFF71DFF4179C0
:10BA40008279491CC9B28A4200D04171BDE81040D8
:10BA5000FFF774BFBC1A002070B505250E4E0F4CC1
:10BA600016E0217806EBC1000279012A08D142795B
:10BA700083799A4204D04279827156F83100804726
:10BA80002078401CC0B22070052801D3002020700F
:10BA90006D1EEDB2E5D270BDBC1A0020FE04002080
:10BAA00000B511F0B5F840B911F0BCF828B911F0A3
:10BAB000D0F810B911F0E1F808B1024800BD024811
:10BAC00000BD00000C05004000E7014010B511F07A
:10BAD000D4F830B3EFF31080C8B1002172B6124829
:10BAE00002680368C2F3001243F0100303604FF0D2
:10BAF000E023D3F80042D3F804321C4300D040BF07
:10BB000020BF00BF00BF00BF00BF12B105E0012190
:10BB1000E4E7026822F010020260002900D062B659
:10BB200010BD20BF10BD000010ED00E00149096804
:10BB300089680847800000200149096809690847A9
:10BB40008000002001480068406800478000002015
:10BB5000014909680968084780000020C3CE030036
:10BB6000BBCE0300AFCE0300BFCE0300B7CE0300B1
:10BB700070B50E4C6078002817D120780025012878
:10BB800006D102202070206910B12069804725610C
:10BB90002078032809D125702069002805D0606825
:10BBA0004069804720698047256170BD840000207E
:10BBB00010B5084C2078022802D02078032802D142
:10BBC0006068806880470020A0706070BDE8104009
:10BBD000FFF7CEBF8400002002480078002800D084
:10BBE000012070478400002038B50446052804D39E
:10BBF00040F23D116820FFF73FFEFFF7B9FF104DFF
:10BC0000012068702878022816D16868C16820462B
:10BC100088470C4901EB4402527882420DD3A87840
:10BC200001280AD011F814008DF800008DF80140A9
:10BC3000686801686846884738BD0120F4E700005D
:10BC400084000020201E002005490A78022A04D022
:10BC50000A78032A01D0002070474968096908471B
:10BC60008400002010B558B108490A78022A02D091
:10BC70000A78032A09D149684968BDE81040084795
:10BC800040F253116820FFF7F7FD10BD840000203B
:10BC90000149012088707047840000200548017820
:10BCA000022904D00178032901D0002070474068A0
:10BCB0008069004784000020E7CE03001FCF030007
:10BCC00009CF0300F7CE030003CF0300F1CE03003A
:10BCD000E5CE0300E3CE03001BCF03000FCF03002C
:10BCE000FDCE0300EBCE0300DDCE0300D5CE030076
:10BCF000D9CE0300CFCE030001480068006800479A
:10BD00009800002001480068406900479800002022
:10BD1000014A1268D268104798000020014909685A
:10BD2000C96A084798000020014800680069004778
:10BD300098000020014A126892681047980000207D
:10BD400001490968496A08479800002001490968C3
:10BD5000896A084798000020014B1B685B681847F8
:10BD6000980000200148007870470000FF04002080
:10BD70001FB5144C207A8DF80100E0798DF8000091
:10BD8000A079ADF804006079ADF8020068460DF0C6
:10BD900087FE08B1832110E0E068029002A80DF050
:10BDA00095FE08B1872108E007480068039003A8C2
:10BDB00015F06EF8002803D08B21032000F058F90D
:10BDC0001FBD0000E41A002084C102007CB50446B7
:10BDD00000680D4600F1030020F0030020604FF0E2
:10BDE00000000090019008788DF8010048788DF8E7
:10BDF000020088788DF80300C8788DF8040028794F
:10BE000016008DF8050001D0002000E0206869468A
:10BE100000F046FB216808442060A97841B16B8A94
:10BE2000EA7806B1002000F021FE21680844206075
:10BE30001948C17879B1297C69B1007908B1FF222C
:10BE400000E025220EB1002000E0206800F0A4FEF2
:10BE5000216808442060287968B12068C01C20F05F
:10BE6000030020602A7D297906B100200EF0E8F950
:10BE7000216808442060687D00280CD02068C01C20
:10BE800020F003002060697D06B1002000F0B4FEC0
:10BE90002168084420607CBD9C00002010B528B1BA
:10BEA0001422044910F029FF002010BD6FF0150086
:10BEB00010BD0000A0C1020070B510B16FF02C00E1
:10BEC00070BD304C607810B14FF0FF3070BD21B3C1
:10BED0006FF01500002AF9D02B4B0C29F6D2DFE8C1
:10BEE00001F006070A0D1D202C3426373A3FEDE7F6
:10BEF0001078187038E01078587035E09178002983
:10BF0000E4D0D1780029E1D011781B29DED3517813
:10BF10001B29DBD31068C3F8050025E01068D86042
:10BF200022E01178DA789142D0D399701CE0117830
:10BF30009A789142CAD8D97016E0E17811B1117897
:10BF40000229C3D3107818740EE0108858820BE0D1
:10BF50001078187108E011780229B7D3197503E039
:10BF600011780829B2D8597501220749002010F02C
:10BF7000F0FFB0F5803F02DB6FF00B0070BD0121D8
:10BF8000A17070BD9C000020E41A002070B50C4622
:10BF9000050019D0C4B100F037F9C0B12846FFF749
:10BFA00021FD0C4D00220C492870204610F0D1FFD5
:10BFB00015F04FFE002128780EF050F8FFF7D8FE5C
:10BFC00001206870002070BD6FF0150070BD4FF04B
:10BFD000FF3070BD9C000020E41A002030B587B00F
:10BFE00005000CD0FFF7A4FC4FF0FF3420B1FFF7A1
:10BFF0004BFBB0F5FA7F05D9204607B030BD6FF096
:10C000001500FAE7154C1648A56000F025FA002047
:10C010006070A070E070207101461822684610F030
:10C02000E6FE18220F49684610F067FE182269469E
:10C030000D4810F062FEEFF3108472B66FF00C0042
:10C0400000F01CFE094800F0E7FE18B19E21032015
:10C0500000F00EF804B962B60020CEE79C00002084
:10C0600071BD020088C10200E41A002035C202003E
:10C070000EB572B6154A9568DDB1002203466E46CC
:10C080000A2403E0B0FBF4F0521CD2B20028F9D12C
:10C09000B0540AE0D8B2B0FBF4F7B3FBF4F304FBFE
:10C0A0001700521ED2B23030B054002AF2D13046BE
:10C0B000A847BFF34F8F06480168064A01F4E061C4
:10C0C00011430160BFF34F8F00BFFDE79C000020CC
:10C0D0000CED00E00400FA05064810B581784078C0
:10C0E000014302D04FF0FF3010BD0DF0E3FF002000
:10C0F00010BD00009C000020074810B581784278F0
:10C10000114302D04FF0FF3010BD0121C170017109
:10C110000DF0E2FF002010BD9C000020084810B583
:10C1200081784078014302D04FF0FF3010BD15F008
:10C13000E6F815F028F915F014F9002010BD0000FC
:10C140009C000020064810B581784078014302D059
:10C150004FF0FF3010BD0DF0D1FF002010BD0000EA
:10C160009C000020064810B581784078014302D039
:10C170004FF0FF3010BD15F006F9002010BD000093
:10C180009C0000200100000001010100001B1B03B6
:10C19000020000004C1D000003001F000200000010
:10C1A000F2E75F6F23A2F3E8102FC3359ED71DFE81
:10C1B0008F8042F9054A10B5526812B1BDE81040AF
:10C1C000104792210420FFF753FF0000FC1A0020C3
:10C1D000054A10B5126812B1BDE8104010478C2115
:10C1E0000420FFF745FF0000FC1A0020054A10B5A7
:10C1F000926812B1BDE81040104798210420FFF763
:10C2000037FF0000FC1A00200548016829B1416889
:10C2100019B1806808B10120704700207047000004
:10C22000FC1A002002490DC881E80D00002070476B
:10C23000FC1A0020F8B5124C0026256811E0009881
:10C24000022802D003280CD106E0206810B100209B
:10C25000266005E028210CE0206868B101202660F6
:10C26000A847684600F0AAFD0028E8D0052805D0B8
:10C2700035210420FFF7FCFE2D21FAE7F8BD000070
:10C28000A80000207CB51F4C0546207840B1A2785C
:10C29000611C2846921C10F030FD0020207021E027
:10C2A000194802F035FE00281DD0174C20781428BC
:10C2B00004D10A213E2000F029F818B120780A287C
:10C2C00005D009E01049284611F0A9F90AE0052136
:10C2D0003E2000F01BF838B10B49284610F0F7FE5D
:10C2E000002800D001207CBDA088ADF8000001A985
:10C2F000684611F0EAFA0028F5D09C210820FFF7E3
:10C30000B7FE0000101C0020081B002070B50C4672
:10C31000054600F04BF8002802D03E2D01D0012048
:10C3200070BD122C06D106480178022902D040784F
:10C330000028F5D02046BDE8704000F049B8000064
:10C3400000050020014948707047000000050020EA
:10C3500070B50A7882703AB3012A25D81323037086
:10C3600000230AE001EB430400EB4305A678EE70DE
:10C370006488240A5B1C2C71DBB29342F2D3002345
:10C380000BE000BF01EB430500EB43042E7966711F
:10C39000AD882D0A5B1CA571DBB29342F2D301215B
:10C3A00001EB8200C0B270BD002070BD402803D2F6
:10C3B000401EC1B2054805E0FF2805D04038C1B293
:10C3C0000248083011F055B901207047AC00002038
:10C3D000401EC1B2014811F04CB90000BC00002061
:10C3E000024902680A61406848617047AC00002059
:10C3F000054902680A60406842F48C220A60034AD8
:10C400001043486070470000AC000020F80740026D
:10C4100007484FF0FF3100220160C90C416000F174
:10C4200008011F200A604A600831C1E90002704714
:10C43000AC00002010B5FFF7EBFF0020FFF782FFF4
:10C4400014F0E1FE04460348006800B1804720462E
:10C4500010BD0000C40000200149086070470000C2
:10C46000C400002002210180418000210171F221DD
:10C47000417145F6E771C180014981600020704734
:10C480006F23A2F310B5052804D34FF4D6711720FB
:10C49000FFF7EEFD0149085C10BD0000141D0020EF
:10C4A000F8B504468A7848780244FF2A02D940F257
:10C4B0005F111DE00A78824202D940F2631117E051
:10C4C0000094C4B100264B7891F802C04A790CEB75
:10C4D0000300C5B2AA4200D91546C878A84200D9BF
:10C4E0000546E71C27F00307A74206D040F2791162
:10C4F0001720FFF7BDFD0126E5E7154F3B7087F8D4
:10C5000001C0B8700879F8703A713146684600F099
:10C510000FF900218C460098C01C20F00300009009
:10C520005EB907EB8103D861002004E0DA6942F8C4
:10C5300020C0401CC0B2A842F8D30098491C00EBB0
:10C540008500C9B200900529E5D3001BF8BD0000A5
:10C55000141D002070B5044611F03BFF08B11020F7
:10C5600070BD257800F020F902460C48618800EB88
:10C5700085000EE0C36953F8213043B14A1C628044
:10C58000A180C06950F82100A060002070BD491C46
:10C5900089B29142EED36180052070BD141D002048
:10C5A0002DE9F041074611B1002038B901E0012022
:10C5B000FBE7012902D0002038B901E00120FBE7A8
:10C5C000022902D0002038B901E00120FBE703294D
:10C5D00002D0002060B901E00120FBE7042907D068
:10C5E000002000281FD000241248012902D002E0B8
:10C5F0000120F6E7047800234FF6FF7600EB810C6C
:10C6000010F801E008E01819DCF81C5080B255F869
:10C61000205025B15B1C9BB29E45F4D83046388033
:10C62000B04202D10020BDE8F081BDE8F04100F049
:10C6300035B80000141D00202DE9F0410746A0F593
:10C640007F400C4643F20206FF3820D0052C02D36F
:10C650000720BDE8F081384600F05AF8050016D0F2
:10C660000C48294650F82420384690470A480021B3
:10C6700000EB8406F06940F82710204600F08AF8A5
:10C6800002462946B06811F0A6FC0020E1E73046DA
:10C69000DFE70000E4C70200141D00202DE9F0418F
:10C6A00090460E46074611F0E2FC48B1164800EBF2
:10C6B0008604E06950F8270028B14FF49D7115E019
:10C6C00040F2391112E0A06800281AD0304600F07C
:10C6D00061F80146A06811F026FC050010D0E06961
:10C6E000052E40F8275004D340F245111720FFF7DC
:10C6F000BFFC06484246294650F82630384698473F
:10C700002846BDE8F0810000141D0020D0C70200BB
:10C7100070B50C46054611F0AAFC002805D0034868
:10C7200000EB8400C06950F8250070BD141D002086
:10C730002DE9F843164F8846054600242868C01C9A
:10C7400020F003002860204600F024F8395D4143C2
:10C75000B8F1000F01D0002000E02868009018B167
:10C7600000261EB1002002E00126FAE7684611F01B
:10C770000BFC1EB907EB8401009A8A602968641CCF
:10C780000844E4B22860052CD8D3BDE8F883000043
:10C79000141D0020034931F810004FF6FC71C01C35
:10C7A00008407047F8C70200084B187859780844C9
:10C7B000C1B29878814200D30846DA78904200D21C
:10C7C00010461979884200D208467047141D00208F
:10C7D00083E0030083E0030083E0030083E00300C1
:10C7E00083E00300B305040087000400D1F50300D3
:10C7F000391C0400431C0400E8024803580180006F
:10C80000900000002DE9FF4F274C074681B02068BB
:10C810009A46934658B1017AB94203D9406850F814
:10C82000270040B143F2020005B0BDE8F08FA5211A
:10C830001820FFF71DFC1946029811F03CFC8046B9
:10C8400058460E9911F02DFC064608EB0600001D17
:10C8500085B22068A1462946006811F064FB0400F7
:10C860001FD0658026800E98251D009031465A46BF
:10C870000123284611F0AFFA2088414628440A23B4
:10C88000029ACDF800A011F0A6FA20884119284696
:10C8900011F0D4FAD9F80000406840F82740002091
:10C8A000C2E70420C0E70000C800002070B5144CA7
:10C8B00023688BB1197A814212D95A6852F8201034
:10C8C00071B1002542F820504A88186811F083FBA6
:10C8D000216800200A7A0CE0C8211820FFF7C8FB65
:10C8E00043F2020070BD4B6853F8203033B9401C4E
:10C8F000C0B28242F7D8086811F062FB002070BD18
:10C90000C80000202DE9F0410D46040090464FF08C
:10C91000000609D00027E01C20F00300A04205D04B
:10C9200086211820FFF7A4FB0127F4E7CDB11146BB
:10C93000002011F029FB0C3000EB85068FB90A4F5F
:10C9400004F10C00AA003C602572606000EB8500D9
:10C9500020600021606810F04AFA4146386811F002
:10C9600013FB3046BDE8F081C800002070B5084DCB
:10C97000286800280AD0002404E02046FFF796FF2C
:10C98000641CE4B22868007AA042F6D870BD0000AA
:10C99000C8000020094910B502460968002049B1C5
:10C9A0000B7A934205D9496851F82210002900D02A
:10C9B000081D10BDEE211820FFF75AFBC80000200B
:10C9C0000A4910B502460968002059B10B7A934212
:10C9D00007D9496851F82210002902D031F8040B18
:10C9E000084410BDFC211820FFF742FBC8000020BE
:10C9F0002DE9F0411C4E456804460022A1B10120FA
:10CA0000607070888308002004EB400104EB80060E
:10CA10000A830B8400FB035171602118401C0A75C6
:10CA20000428F1D3BDE8F0816270002004EB4001DE
:10CA30000A830A8404EB80014A602118401C0A75AD
:10CA40000428F3D3708811F0B5FB0746708811F005
:10CA5000B8FB656020842918A1606784E560A08424
:10CA60002161E784DEE70000CC0000202DE9F047DB
:10CA700080B100261144CFB2DFF89C80C11C002495
:10CA800021F0030188F80070814205D04E21092071
:10CA9000FFF7EEFA0126EDE71F2B04D84FF6FF71E2
:10CAA00001EA830509E05900FF2B0CD903F1FF02CD
:10CAB000B2EB430F00D211468DB24FF6FC71ED1C64
:10CAC0000D4036B109E07C22B2EB430FF4D37C2158
:10CAD000F2E7C8F80400A8F8025007EB870104EB5E
