:1000000040800020CD7C00004F500300A17C000008
:10001000A17C0000A17C0000A17C00000000000089
:10002000000000000000000000000000017500005A
:10003000A17C000000000000A9740000A17C000069
:10004000B5750000EB940300B5750000B5750000B0
:10005000B5750000B5750000B5750000B5750000F8
:10006000B5750000B5750000B5750000B5750000E8
:10007000B5750000B5750000B5750000B5750000D8
:10008000B5750000B5750000B5750000B5750000C8
:10009000B5750000B5750000B5750000B5750000B8
:1000A000B5750000B5750000B5750000B5750000A8
:1000B000B5750000B5750000B5750000B575000098
:1000C000B5750000B5750000B5750000B575000088
:1000D000B5750000B5750000B5750000B575000078
:1000E000B5750000B5750000B5750000B575000068
:1000F000B5750000B5750000B5750000B575000058
:1001000001F0FF01102A2BDB10F0070F08D010F8C8
:10011000013B013A8B422DD010F0070F42B3F6D1CC
:10012000F0B441EA012141EA014122F007047FF0E5
:1001300000070023F0E80256083C85EA010586EA3C
:10014000010685FA47F5A3FA87F586FA47F6A5FA78
:1001500087F68EB9EED1F0BC01F0FF0102F0070284
:1001600032B110F8013B013A83EA010313B1F8D12F
:100170000020704701387047002D06BF3546033810
:10018000073815F0010F07D1013015F4807F02BF49
:10019000013015F4C03F0130F0BC0138704700BF9A
:1001A00081F0004102E000BF83F0004330B54FEA28
:1001B00041044FEA430594EA050F08BF90EA020F95
:1001C0001FBF54EA000C55EA020C7FEA645C7FEA28
:1001D000655C00F0E2804FEA5454D4EB5555B8BF4B
:1001E0006D420CDD2C4480EA020281EA030382EABC
:1001F000000083EA010180EA020281EA0303362D4E
:1002000088BF30BD11F0004F4FEA01314FF4801C20
:100210004CEA113102D0404261EB410113F0004F32
:100220004FEA03334CEA133302D0524263EB4303E9
:1002300094EA050F00F0A780A4F10104D5F1200E87
:100240000DDB02FA0EFC22FA05F2801841F10001E2
:1002500003FA0EF2801843FA05F359410EE0A5F1B6
:1002600020050EF1200E012A03FA0EFC28BF4CF0E7
:10027000020C43FA05F3C01851EBE37101F000459D
:1002800007D54FF0000EDCF1000C7EEB00006EEBAA
:100290000101B1F5801F1BD3B1F5001F0CD3490834
:1002A0005FEA30004FEA3C0C04F101044FEA44528B
:1002B00012F5800F80F09A80BCF1004F08BF5FEA12
:1002C000500C50F1000041EB045141EA050130BDF2
:1002D0005FEA4C0C404141EB0101013C28BFB1F504
:1002E000801FE9D291F0000F04BF01460020B1FA4F
:1002F00081F308BF2033A3F10B03B3F120020CDA22
:100300000C3208DD02F1140CC2F10C0201FA0CF0FF
:1003100021FA02F10CE002F11402D8BFC2F1200C64
:1003200001FA02F120FA0CFCDCBF41EA0C0190401A
:10033000E41AA2BF01EB0451294330BD6FEA040463
:100340001F3C1CDA0C340EDC04F11404C4F120024E
:1003500020FA04F001FA02F340EA030021FA04F360
:1003600045EA030130BDC4F10C04C4F1200220FAB7
:1003700002F001FA04F340EA0300294630BD21FAF5
:1003800004F0294630BD94F0000F83F4801306BFBB
:1003900081F480110134013D4EE77FEA645C18BFAF
:1003A0007FEA655C29D094EA050F08BF90EA020F46
:1003B00005D054EA000C04BF1946104630BD91EA3E
:1003C000030F1EBF0021002030BD5FEA545C05D141
:1003D0004000494128BF41F0004130BD14F5800480
:1003E0003CBF01F5801130BD01F0004545F0FE41F4
:1003F00041F470014FF0000030BD7FEA645C1ABF29
:10040000194610467FEA655C1CBF0B46024650EA5F
:10041000013406BF52EA033591EA030F41F400218B
:1004200030BD00BF90F0000F04BF0021704730B511
:100430004FF4806404F132044FF000054FF00001E6
:1004400050E700BF90F0000F04BF0021704730B5A7
:100450004FF4806404F1320410F0004548BF40427C
:100460004FF000013EE700BF42004FEAE2014FEAD1
:1004700031014FEA02701FBF12F07F4393F07F4FAC
:1004800081F06051704732F07F4208BF704793F0AF
:100490007F4F04BF41F40021704730B54FF46074C2
:1004A00001F0004521F000411CE700BF50EA0102C5
:1004B00008BF704730B54FF000050AE050EA01026E
:1004C00008BF704730B511F0004502D5404261EBDE
:1004D00041014FF4806404F132045FEA915C3FF41F
:1004E000D8AE4FF003025FEADC0C18BF03325FEABC
:1004F000DC0C18BF033202EBDC02C2F1200300FA6D
:1005000003FC20FA02F001FA03FE40EA0E0021FA91
:1005100002F11444BDE600BF70B54FF0FF0C4CF47F
:10052000E06C1CEA11541DBF1CEA135594EA0C0F31
:1005300095EA0C0F00F0DEF82C4481EA030621EA6C
:100540004C5123EA4C5350EA013518BF52EA0335A7
:1005500041F4801143F4801338D0A0FB02CE4FF059
:100560000005E1FB02E506F00042E0FB03E54FF089
:100570000006E1FB03569CF0000F18BF4EF0010E81
:10058000A4F1FF04B6F5007F64F5407404D25FEA7D
:100590004E0E6D4146EB060642EAC62141EA555130
:1005A0004FEAC52040EA5E504FEACE2EB4F1FD0C72
:1005B00088BFBCF5E06F1ED8BEF1004F08BF5FEAF0
:1005C000500E50F1000041EB045170BD06F00046A2
:1005D00046EA010140EA020081EA0301B4EB5C044F
:1005E000C2BFD4EB0C0541EA045170BD41F4801147
:1005F0004FF0000E013C00F3AB8014F1360FDEBF6C
:10060000002001F0004170BDC4F10004203C35DA47
:100610000C341BDC04F11404C4F1200500FA05F3CA
:1006200020FA04F001FA05F240EA020001F000426B
:1006300021F0004110EBD37021FA04F642EB0601E1
:100640005EEA430E08BF20EAD37070BDC4F10C040B
:10065000C4F1200500FA04F320FA05F001FA04F2CF
:1006600040EA020001F0004110EBD37041F10001BB
:100670005EEA430E08BF20EAD37070BDC4F12005C6
:1006800000FA05F24EEA020E20FA04F301FA05F22E
:1006900043EA020321FA04F001F0004121FA04F2D6
:1006A00020EA020000EBD3705EEA430E08BF20EAA6
:1006B000D37070BD94F0000F0FD101F000464000E0
:1006C00041EB010111F4801F08BF013CF7D041EA62
:1006D000060195F0000F18BF704703F00046520066
:1006E00043EB030313F4801F08BF013DF7D043EA37
:1006F0000603704794EA0C0F0CEA135518BF95EAED
:100700000C0F0CD050EA410618BF52EA4306D1D173
:1007100081EA030101F000414FF0000070BD50EA92
:10072000410606BF1046194652EA430619D094EA1C
:100730000C0F02D150EA013613D195EA0C0F05D106
:1007400052EA03361CBF104619460AD181EA03015A
:1007500001F0004141F0FE4141F470014FF0000012
:1007600070BD41F0FE4141F4780170BD70B54FF0AD
:10077000FF0C4CF4E06C1CEA11541DBF1CEA13552D
:1007800094EA0C0F95EA0C0F00F0A7F8A4EB05040F
:1007900081EA030E52EA03354FEA013100F0888006
:1007A0004FEA03334FF0805545EA131343EA1263CF
:1007B0004FEA022245EA111545EA10654FEA002684
:1007C0000EF000419D4208BF964244F1FD0404F53D
:1007D000407402D25B084FEA3202B61A65EB030599
:1007E0005B084FEA32024FF480104FF4002CB6EB56
:1007F000020E75EB030E22BFB61A754640EA0C00D6
:100800005B084FEA3202B6EB020E75EB030E22BF15
:10081000B61A754640EA5C005B084FEA3202B6EB56
:10082000020E75EB030E22BFB61A754640EA9C0015
:100830005B084FEA3202B6EB020E75EB030E22BFE5
:10084000B61A754640EADC0055EA060E18D04FEAA3
:10085000051545EA16754FEA06164FEAC30343EA43
:1008600052734FEAC2025FEA1C1CC0D111F4801F10
:100870000BD141EA00014FF000004FF0004CB6E709
:1008800011F4801F04BF01430020B4F1FD0C88BFA8
:10089000BCF5E06F3FF6AFAEB5EB030C04BFB6EBB3
:1008A000020C5FEA500C50F1000041EB045170BDA6
:1008B0000EF0004E4EEA113114EB5C04C2BFD4EBD3
:1008C0000C0541EA045170BD41F480114FF0000E57
:1008D000013C90E645EA060E8DE60CEA135594EAD3
:1008E0000C0F08BF95EA0C0F3FF43BAF94EA0C0FD6
:1008F0000AD150EA01347FF434AF95EA0C0F7FF44B
:1009000025AF104619462CE795EA0C0F06D152EA9E
:1009100003353FF4FDAE1046194622E750EA410682
:1009200018BF52EA43067FF4C5AE50EA41047FF493
:100930000DAF52EA43057FF4EBAE12E753B94AB963
:10094000002908BF00281CBF4FF0FF314FF0FF30D7
:1009500000F00CB8ADF1080C6DE904CE00F0E1F840
:10096000DDF804E0DDE9022304B07047704700BF02
:100970004FF0FF3C06E000BF4FF0010C02E000BF6B
:100980004FF0010C4DF804CD4FEA410C7FEA6C5C4E
:100990004FEA430C18BF7FEA6C5C1BD001B050EAF1
:1009A000410C0CBF52EA430C91EA030F02BF90EADC
:1009B000020F0020704710F1000F91EA030F58BF9B
:1009C000994208BF90422CBFD8176FEAE37040F0FD
:1009D000010070474FEA410C7FEA6C5C02D150EA9B
:1009E000013C07D14FEA430C7FEA6C5CD6D152EA56
:1009F000033CD3D05DF8040B704700BF844610461B
:100A000062468C461946634600E000BF01B5FFF719
:100A1000B7FF002848BF10F1000F01BD4DF808EDE9
:100A2000FFF7F4FF0CBF012000205DF808FB00BFBA
:100A30004DF808EDFFF7EAFF34BF012000205DF814
:100A400008FB00BF4DF808EDFFF7E0FF94BF012061
:100A500000205DF808FB00BF4DF808EDFFF7CEFF62
:100A600094BF012000205DF808FB00BF4DF808EDA1
:100A7000FFF7C4FF34BF012000205DF808FB00BF72
:100A80004FEA410C7FEA6C5C02D150EA013C0AD18A
:100A90004FEA430C7FEA6C5C02D152EA033C02D17C
:100AA0004FF0000070474FF0010070474FEA4102DD
:100AB00012F5001215D211D56FF47873B3EB6252B0
:100AC00012D94FEAC12343F0004343EA505311F0D7
:100AD000004F23FA02F018BF404270474FF0000069
:100AE000704750EA013005D111F0004008BF6FF0A7
:100AF000004070474FF00000704700BF430803F00C
:100B00005533C01A00F03333800800F033301844F6
:100B100000EB10104FF0013300F00F305843000E7F
:100B200070472DE9F04F07468C460846099E15464A
:100B30003C461946002B40F0C6808242B2FA82F74A
:100B400046D94FB1C7F1200E24FA0EFE00FA07F382
:100B5000BD404EEA030CBC404FEA15481FFA85FE23
:100B6000BCFBF8F9220C08FB19C309FB0EFA42EA98
:100B700003439A4528D9EB1809F1FF3004D29A456E
:100B800002D9A9F102002B44A3EB0A03A4B2B3FBE0
:100B9000F8F208FB123302FB0EFE44EA0344A645BA
:100BA00014D92C1902F1FF3303D2A64501D9931EA3
:100BB0002C44A4EB0E0443EA00401EB1FC40002389
:100BC00034607360BDE8F08F4846DDE71346F0E718
:100BD00002B9FFDE87BB831A01214FEA154EAAB284
:100BE000B3FBFEFC200C0EFB1C330CFB02F840EAAE
:100BF0000343984563D9EB180CF1FF3004D29845B4
:100C000002D9ACF102002B44A3EB0803A4B2B3FB5E
:100C1000FEFC0EFB1C330CFB02F244EA0344A2422E
:100C20004FD92C190CF1FF3304D2A24202D9ACF1F6
:100C300002032C44A41ABEE7C7F1200C20FA0CF8DA
:100C400000FA07F324FA0CFCBD404CEA03024FEA19
:100C5000154EABB2B8FBFEFC110C0EFB1C800CFB5E
:100C600003F941EA0040814504FA07F423D9281822
:100C70000CF1FF3104D2814502D9ACF102012844C4
:100C8000A0EB090092B2B0FBFEFC0EFB1C000CFBBB
:100C900003F842EA004398450FD9EB180CF1FF32F4
:100CA00004D2984502D9ACF102022B44A3EB08030D
:100CB00042EA014191E76146E2E76246F6E76046B3
:100CC000A2E76346B6E7834205D90EB1C6E90070D4
:100CD0000021084676E7B3FA83F181B9834201D354
:100CE000BA420AD8BC1A60EB030301209C46002ECE
:100CF00068D0C6E9004C002164E70846F7E7C1F177
:100D0000200C8B4022FA0CF41C4302FA01F500FA85
:100D100001F327FA0CF220FA0CFB4FEA14491343B3
:100D2000BBFBF9F81FFA84FE09FB18BB1A0C08FB81
:100D30000EFA42EA0B42924507FA01F73ED9A21891
:100D400008F1FF3004D2924502D9A8F102002244F2
:100D5000A2EB0A029BB2B2FBF9F809FB182208FBCE
:100D60000EFE43EA024296452AD9A21808F1FF3343
:100D700004D2964502D9A8F10203224443EA004076
:100D8000A0FB0593A2EB0E029A42CE46984602D3F0
:100D900006D14F4504D2B9EB050E63EB04080138C8
:100DA00086B1B7EB0E0362EB080707FA0CFCCB40E9
:100DB0004CEA0303CF40C6E900379CE74046C7E74B
:100DC0004346DBE73146FDE610F8012B11F8013B05
:100DD000012A28BF9A42F7D0D01A7047034613F869
:100DE000012B002AFBD1181A0138704700000000BF
:100DF0002DE9F8430346D0E90A801E6B184D84198B
:100E00003034A0451746894613A3D3E9002315D8EB
:100E1000A0FB0501FFF792FD20F07F40C9F800001C
:100E2000A4EB08000CA3D3E90023A0FB0501FFF706
:100E300085FD20F07F403860BDE8F883A8FB050100
:100E4000FFF77CFD20F07F40C9F8000006F130007C
:100E5000E8E700BFAFF300808D49FD1A07000000EE
:100E600000CA9A3B000000002DE9F04F8FB020B976
:100E70000FB0BDE8F04F21F0CFBCB94E96F86A70C4
:100E800017F0010740F0648196F8293006EB8303E0
:100E9000D3F82C9096F8353006EB8303D3F838B0AE
:100EA000B9F1000F0AD0484638F0DDF899F8003063
:100EB0005A060DD4AA48594638F026F999F8003058
:100EC00013F00E0F40F0A180336A43B10C2798E075
:100ED000062137F004FD0028ECD1122791E020F024
:100EE00041FA804630B120F0BFFA824620B9404630
:100EF00020F03EFA072784E021F0C8FF044618B925
:100F0000504620F0B7FAF2E74FF6FF720285826E84
:100F100000F11C0312B900F16002826604F15C0268
:100F200004F15801A06E0B9337F0E4FC94F86E20A6
:100F300022F0070284F86E2094F8392002F03F0274
:100F400062F07F0284F8392094F83C2022F00702F6
:100F500084F83C200622A4F8702094F87C20002518
:100F600022F0070284F87C20C4E91255A566A4F893
:100F70006C50E585256384F83B502565A4F87450D2
:100F8000A4F87850A4F8885084F88A50C4F898508F
:100F9000A4F89C50A4F8B05037F0DCFF94F8CA20B5
:100FA0000B9B336222F0030284F8CA2094F8F620E7
:100FB000A4F8C850C4E92E0165F3451200200021B1
:100FC000C6E9188AC4E93001C4E94A55C4E948555C
:100FD000C4E90555A4F8D05084F8D350C4F8D4809F
:100FE000A4F8F45084F8F620C4F88450C4F81C51D6
:100FF0002570E46123F0E0FC38B1594821F06EF926
:10100000032738460FB0BDE8F08F96F82430012151
:10101000C3F342030DF133008DF8333037F096FC03
:101020000246002800F08C809BF80110484638F0FA
:101030002AF84C49B6F8688000243123C6E9023406
:10104000A0FB010144A3D3E90023C6E905443470A1
:101050007460FFF773FC306137F020FF0546B8F18C
:10106000000F06D199F8004004F00F04631E5C42A3
:101070005C4196F824903369DFF8ECB03B4A64F3A6
:10108000000986F824904FF0020A19F001090DAC0E
:10109000CDF834A031D00020CDE90526CDE90003FC
:1010A00004930321CDE907B4CDE902002B46524653
:1010B00037F0C1FE214620F08BFC002840D12C4A9D
:1010C00006964AF2D833CDE904020093CDE907B47D
:1010D000CDE9020001902B4601220321CDF834A076
:1010E00037F0A9FE214620F073FC48BB96F86A3021
:1010F00043F0010386F86A3083E71E4903F2471084
:1011000008601D48CDE90432CDE908414FF0910C4B
:10111000A8FB00014FF6FF73CDE902930CFB081109
:101120000DA3D3E90023CDE9066BFFF707FC2B469F
:10113000CDE900905246032148461EF0D5FFD1E785
:10114000336A002B3FF4C2AE054821F0C7F8BDE674
:10115000002756E7AFF300808D49FD1A0700000015
:10116000C840002000CA9A3B591302002D250200F6
:101170006122020034410020002AE78400000000C0
:1011800070B590F824308AB0C3F342030D4604468C
:1011900001210DF1230016468DF8233037F0D6FBE0
:1011A00071780246284637F06EFF1D491AA3D3E92D
:1011B0000023A0FB0101FFF7C1FB216905468D4219
:1011C0001FD2481B0021174A02230993A21A6C233D
:1011D000B2FBF3F2144B059309AE00230232CDE9C2
:1011E0000110CDE90333032106960093D2B21846CD
:1011F00037F03CFE314620F0EBFB40B925610AB0E8
:1012000070BD02D9691A0020DDE70020F7E70C2045
:10121000F5E700BFAFF300808D49FD1A070000001D
:1012200000CA9A3BC8400020591302000000000089
:101230002DE9F047044690F8300094F820303E4FF6
:10124000C0F3400060F386138CB084F8203004F1C2
:10125000210137F029FE268D94F82030E461002525
:10126000A6FB07014FF0910C03F079030CFB06116C
:10127000C4E9055584F8203025702DA3D3E9002357
:10128000FFF75CFB3123C4E90235E36A656018337C
:1012900098428EBF23612561E562284D064637F0EE
:1012A000FDFD02230B93651B3423B5FBF3F5244BA3
:1012B000B4F828C0CDE90643B846224B059307464B
:1012C00023690493ACFB080891214FF0000901FB4E
:1012D0000C810DF12C0A16A3D3E90023CDF820A030
:1012E000CDF80C90FFF72AFB104619464FF47A729E
:1012F0000023FFF723FB0435EDB2CDE901600321A4
:10130000CDF800903B462A46484637F094FD5146BA
:1013100020F05EFB40B994F8303043F0010384F8CC
:1013200030300CB0BDE8F0870C20FAE7AFF3008056
:101330008D49FD1A07000000002AE784584100206B
:1013400059130200752A0200F8B50446002016461B
:101350001F4621F00BFC054620B390F83030018584
:1013600067F3420380F830309DF818306401DB00E9
:1013700003F0180304F020041C4390F8203023F0FD
:1013800038031C4380F8204009489124A6FB000143
:1013900005A3D3E9002304FB0611FFF7CFFAE862A7
:1013A0000020F8BD0C20FCE78D49FD1A0700000065
:1013B000002AE784000000002DE9F04F154690F860
:1013C000883090F8892093428BB0044689460BD12F
:1013D00090F89D1090F89C208A4225D00122023B73
:1013E00080F88A2080F8893094F8883094F8892031
:1013F0009A1A02F00302022A40F0658294F88A00E9
:10140000012800F00C82022800F02484C84AC9494F
:10141000C94840F20A5332F04EF8404080F3118838
:101420004FF0030002DF4EE290F8B13090F8B020A8
:10143000934254D09B1ADA07D6D590F87C7017F0F7
:10144000010723D020F062FA06460028CCD094F899
:10145000B03084F8B130238DC38003230371037F40
:1014600043F00303037709234377C3770023036221
:10147000436200F12002D4E9300137F0DBFE31464F
:10148000086820F097F920F09FF9ADE7AB4837F0F6
:10149000EDF906460028A7D094F8B130013B84F856
:1014A000B130037943F0030303710923437194F9C5
:1014B00039308760002BACBF08230E23C760C3718F
:1014C00000F10802D4E92E0137F0B4FE314620467F
:1014D00037F0C1FEB4F87630A4F8783084E790F89D
:1014E000C93090F8C82093425FD09B1ADB077FF584
:1014F0007BAF90F8CA30DF0724D4904837F0B6F9B4
:10150000014600283FF470AF94F8C930013B84F8DD
:10151000C93094F8CA3043F0010384F8CA30037923
:1015200043F003030371062343710C23C371037259
:101530006FF00E034372052383724FF0FF33C372C3
:101540000373C4E79E0722D520F0E0F90146002886
:101550003FF44AAF94F8C83084F8C930238DC38073
:1015600003230371037F43F00303037706234377C9
:101570000C23C37794F8CB3080F82030B4F8CC300B
:10158000A0F82130B4F8CE30A0F8233078E740F648
:101590005273674A6749684831F08DFF404080F3D5
:1015A00011884FF0030002DF1EE790F8F52090F855
:1015B000F4309A423FF418AF614E336813B1984249
:1015C0007FF412AF94F8F63003F00F03062B00F20D
:1015D000238101A252F823F0F515000079160000CE
:1015E000CF170000E9130000E9130000E913000021
:1015F000E91300005148678EB4F82E8037F036F9B1
:10160000014600283FF4F0AE0379346043F0030351
:101610000371182343710F23C371B4F8F8300381A9
:10162000B4F8FA304381B4F8FC308381B4F8FE306A
:10163000C38100230374C374037547444FF0FF3321
:1016400043758375C375037643768376C3760377D4
:10165000437783772F44B4F87630A4F87830A0F835
:10166000117094F8F630042262F3030384F8F63024
:10167000204637F0F0FDB7E694F8F730EBB12F488D
:1016800037F0F4F8014600283FF4AEAE037943F09A
:10169000030303711123C371032343710F230372E7
:1016A00094F8F7304372204637F0D5FD94F8F430C3
:1016B00084F8F5300023336096E694F93920002A47
:1016C00040DB94F8F620C4F8A830062060F303024B
:1016D00094F8000184F8F620012284F8AC20B4F8D4
:1016E000FA2048B1B2FBF0F313FB00F3B4F8F800B2
:1016F0009BB2984298BF1A46B4F8FC30A4F8A230C6
:10170000B4F8FE30A4F8A43094F8F630A4F8A02081
:10171000C3F3001394F89E20DB0043F0020322F091
:101720000F021343013984F89E3084F89D105BE664
:1017300008410400E809040007D5030034420020F2
:10174000A0410020664837F091F8014600283FF498
:101750004BAE037943F00303037118234371102345
:10176000C371B4F8F8300381B4F8FA304381B4F8A7
:10177000FC308381B4F8FE30C38194F800310374E7
:10178000B4F80231A0F81130B4F80431A0F81330E5
:10179000B4F80631A0F81530B4F80831A0F81730C5
:1017A000B4F80A31A0F81930B4F80C31A0F81B30A5
:1017B000B4F80E31A0F81D30204637F04CFD94F8F7
:1017C000F630052262F3030384F8F6300CE620F0CD
:1017D0009DF8014600283FF407AE94F8F620032355
:1017E00063F3030284F8F620228D0371037FC28025
:1017F00043F003030377182343770F23C377B4F829
:10180000F8300384B4F8FA304384B4F8FC308384AD
:10181000B4F8FE30C38433E641F29203B9E6E18DB9
:10182000628E0A4415FA82F51FFA82FB94F89E2014
:1018300012F00701ADB255D020F050F8074600284D
:1018400041D0274837F012F8064600283BD0204602
:1018500021F098F920F05AF83B68D4F898205A60A3
:101860003379C4F8987043F00303337100220C23DA
:101870007371F27194F8AC30337240F2E241D4F8F3
:10188000A830B3FBF1F3A6F80930B4F8A030A6F8FD
:101890000B30B4F8A230A6F80D30B4F8A430A6F896
:1018A0000F3094F89E3062F3020384F89E30A38DCB
:1018B00006331D44ADB2A4F88C503146A6F8115041
:1018C000204637F0C8FC94F8D03094F8D1209B1A09
:1018D000DBB2012B00F0098200200BB0BDE8F08FD5
:1018E00034420020B4F88C80A5EB08051FFA85FA75
:1018F0002D04E8D484F8893094F89C3094F8F420CE
:1019000084F89D3094F8F530934209D094F8F6307D
:1019100003F00F03062B04BF84F8F520A4F8781019
:10192000BF4BD4F898501A68944204BF00221A6042
:101930000DB12B6863B9BB4ABB49BC4840F6C743ED
:1019400031F0B9FD404080F311884FF0030002DF11
:101950002868B4F8A0204368C4F89830638DB4F8C0
:10196000A260B4F8A4109A4213D1A38DB34210D14F
:1019700040F2E24303FB02F742F2107303FB0173F0
:10198000013BB3FBF7F3B4F872709BB29F4200F0D7
:101990001F81238DEB8019232B7100232B77EA8382
:1019A0002E84698429461FF005FF1FF00DFFA368F0
:1019B000002B0ADAE068626823F0004390422CBFF3
:1019C00081449144A360A9EB0309608DB4F8A06041
:1019D000974D10FB0AF080B2B0FBF6F216FB02F353
:1019E0009BB2984297B240F2E24180F0F480181A1C
:1019F000484389A3D3E90023A0FB0501FEF79EFF1E
:101A000020F07F408144E38D984494F93930A8EB6D
:101A10000B0BBB4440F2E248002BA4F82EB008FBAD
:101A200006FB80F2E680226CA36C02FB1A33A364EF
:101A300037F0D4FD064694F87C00C0F3C20023F0D2
:101A400009F894F8AC20064408FB02F222650BFB6F
:101A500006F60022C4F8842006F57426A26C7548A8
:101A600006F23F264FEA5B03B6FBF0F606FB07F0F3
:101A7000963B0244266463649A4294BFA264A364C2
:101A8000A0FB050164A3D3E90023FEF757FFA9EBF0
:101A90000009D4F8A800B0FBF8F008FB00F05EA342
:101AA000D3E90023A0FB0501FEF748FFABEB0606D8
:101AB00020F07F47B4F8A0306385B4F8A230A38546
:101AC000B4F8A43042F2107202FB03B3013BB3FB43
:101AD000FBF3A4F87230584B5B44B3FBFBF3A4F860
:101AE000763094F89E30180744BF0023A4F8743071
:101AF0000221012024F0CEFD002202218246012095
:101B00001DF0A0FD204621F0CDF900F105085FFA97
:101B100088F84A4B00944246012100201EF07EFBCB
:101B200030F002030CD03F4A4549404840F67C5310
:101B300031F0C1FC404080F311884FF0030002DF18
:101B4000A6FB056534A3D3E9002330462946FEF7FA
:101B5000F5FE3C4B0894CDE906433B4B05932369C6
:101B6000049320F07F4439484FF6FE730393A4FB9F
:101B700000010723301A03FB041165EB01014FF448
:101B80007A720023FEF7DAFE4B46CDE9014000975A
:101B900042460121002037F04EF930F002030CD00C
:101BA000204A2749214840F6965331F084FC4040B2
:101BB00080F311884FF0030002DFBAF1000F04D068
:101BC0000122022110461DF03DFD6FF08B0084E6DE
:101BD00001232B71E6E606FB120080B248430EA3F8
:101BE000D3E90023A0FB0501FEF7A8FEA9EB00093D
:101BF00009E70C4A16490D4840F64D5331F05BFC9D
:101C0000404080F311884FF0030002DF00275E465A
:101C100050E700BFAFF300808D49FD1A07000000B8
:101C2000A041002008410400D241040007D5030070
:101C300000CA9A3B40420F00FF596202DD2D0200AC
:101C4000E5410400852D0200CD3F02008D49FD1ABB
:101C5000E8090400E18D628E0A44154494F88C2052
:101C6000D107ADB224D5344836F000FE0146002835
:101C70003FF429AE94F88C306FF3000384F88C3075
:101C8000A38D06331D440379A4F8925043F0030357
:101C90000371082343710123C371D4F88D3083602D
:101CA00094F891300373B4F89230A0F80D3007E641
:101CB000B4F89220AD1A2A043FF505AE84F88930B5
:101CC00004F13400D4F88D30636394F891300371DB
:101CD000052136F03BFE94F8393060F3050384F8B3
:101CE0003930012384F83031EDE5134836F0BEFD7C
:101CF000014688B194F8D130013B84F8D1300379A2
:101D000043F00303037102234371C37194F8D2308B
:101D10000372204637F09FFAB4F8780000287FF469
:101D2000DBADB4F87230012B02D9A4F87830D3E5DA
:101D30000133A4F87830D0E53442002000000000E0
:101D40002DE9F04F0B68D3F80090037F044693B061
:101D5000C3F38013D0F81E000B93638CADF84430AE
:101D6000109012AB884613E9030015462346ADF8E0
:101D70003C10E18D53F81CAB52F8086B298194F8A4
:101D800030109170D4F82A206A60D4F83A200E906E
:101D9000AA6105F1180094F83E20027105210A930A
:101DA0000C9336F0D3FD6A7F00F03F0060F305022C
:101DB0006A7794F83F20C2F30401A977A18EE981E4
:101DC00001288FB202F01F0294F83F1006D91B328F
:101DD00002F01F020B2A01D80A9B9FB995F8203008
:101DE000002262F30003C9F8142085F82030012393
:101DF0002371214650461FF0DDFC13B0BDE8F04FC3
:101E00001FF0E2BCD8F800200D930020506094F839
:101E1000362094F8370042EA00222A8296F87C2085
:101E2000638E0A93490961F3C50286F87C2037F076
:101E3000D5FB0C9096F87C00C0F3C20022F00AFE9D
:101E40000C9A0D9B40F2E24B0BFB07F710447843D2
:101E500000F574207E4A00F23F20B0FBF2F07A08D1
:101E6000963AAA6294F8312068620BFB02F2AA63E8
:101E7000B4F838B042F210711FFA8BF201FB027213
:101E8000013AB2FBF7F2A6F87220724A3A44B2FB6A
:101E9000F7F2A6F876206A68C6F88020DA070BD534
:101EA0006D4A6E496E48FF2331F005FB404080F3D8
:101EB00011884FF0030002DF4FF48073A3839DF875
:101EC0002C30A3770E98BDF83C30C4F81F00A4F85E
:101ED0002330EB89E3842B8A238596F87C30A4F8A1
:101EE0002AB0C3F3C20384F82C30304620F0DAFF66
:101EF0002146A881E08050461FF05CFC1FF064FC86
:101F00000021084637F038FB564C4FF0000A834654
:101F1000312300F21460C6E901A3C6F80CA04AA35D
:101F2000D3E90023A0FB0401FEF708FD0A9AD8F8C4
:101F30000C3020F07F4040F2E24101FB023330617F
:101F4000686A03F2B24152463F1AA1EB0B0B012023
:101F500002211DF077FB484620F03CFC821C424BDE
:101F6000CDF80090D2B2012150461EF057F94946F3
:101F700022F010F899F82430DB0707D50122CDF8BC
:101F800000A05346114650461EF048F9304620F056
:101F900089FFA7FB04792CA3D3E900230546494612
:101FA0003846FEF7CBFCD8F80830A3F149084FF4C7
:101FB000EB7308932D4BCDE906632D4B05933369E5
:101FC000049320F07F462B480723A6FB0001381A14
:101FD00003FB061169EB01014FF0000A4FF47A721E
:101FE0000023CDF80CA0FEF7A9FC17A3D3E900232A
:101FF000CDE90160ABFB0401FEF7A0FC053520F044
:102000007F40EDB2009043462A460121504636F00B
:1020100012FF30F002030CD00F4A1749104840F26B
:10202000D71331F048FA404080F311884FF0030095
:1020300002DF01220221104613B0BDE8F04F1DF06F
:1020400001BB00BFAFF300808D49FD1A07000000FF
:1020500040420F00FF59620294420400483C0400D1
:1020600007D5030000CA9A3B953F0200693F020072
:10207000CD3F02008D49FD1AE5410400000000003B
:102080002DE9F04F8FB0DFF8F8800A900DF137019D
:102090000DF1360036F081FF3A4F9DF836A09DF8DD
:1020A00037B036F0FBFED8F80040A4FB075432A34B
:1020B000D3E90023814621462846FEF73FFC0A9BD0
:1020C0000B90D8F8040006932F4B059300262AA303
:1020D000D3E90023A0FB0701CDE90766FEF72EFC3C
:1020E0000B9B20F07F40CDE90360284823F07F4719
:1020F000A7FB00010723281A03FB071164EB01016A
:102100004FF47A720023FEF719FC0096CDE90170B6
:102110004B465A460321504636F08DFE30F00204FD
:1021200026D11B4A1B48002329F04CFDD8B1234679
:102130009DF837209DF83600009403211EF06EF8BC
:1021400030F002030CD01449144A1548E42331F04E
:10215000B2F9144831F0AFF91048E42131F0A4F994
:102160006FF0730001E0D8F80C000FB0BDE8F08FFD
:102170006FF08B00F9E700BF8D49FD1A07000000E2
:102180002C46002000CA9A3BB98502008D49FD1AF1
:10219000447B0B003C460020954D04003B4D040061
:1021A00007D50300DA4D040038B50F4D044636F06C
:1021B00075FEA96836F074FE6968B0FBF4F4044457
:1021C0000A4807A3D3E90023A1FB0001FEF7B6FBF1
:1021D00020F07F40844294BF0020012038BD00BF22
:1021E0008D49FD1A070000002C46002000CA9A3BCA
:1021F0002DE9F041076A88B0104614460E4637F0C4
:1022000021FDFEF70FF91CA3D3E90023FEF7AEFA78
:10221000CDE90201204637F015FDFEF703F918A3BA
:10222000D3E90023FEF7A2FACDE90401204637F0F6
:10223000E9FC07F10408ADF81800B28801AB4021B1
:10224000404635F0E9FA50B102AD0FCD019C0FC404
:1022500095E8030084E80300404629F06FFC3B68E2
:102260002BB11B681BB102AA3146384698470020A3
:1022700008B0BDE8F08100BF21E993166CC176413A
:102280002DEA93166CC166412DE9F04F446A99B06E
:1022900016461F46CDE90467DDF89480054674B9FB
:1022A00010202CF021FD0246686220B9A84BEA21DB
:1022B000A8482EF00BF9C0E901440460C4606B6AC1
:1022C000196851B15A684A60012393408B602846CF
:1022D0002DF016FE6B6A00221A603B1EB9BF23F078
:1022E000004305930023C8F80030DDF814909A4BA2
:1022F000BCBF0122C8F8002033EA090319D1249A8F
:1023000042F20F731360C9F31303334300F0808567
:10231000269B53B9914B22E0914B03930833269AA5
:102320001360039819B0BDE8F08F8C4B039303330F
:10233000F5E7DDE90434CDE90C34DDE90C010022D8
:102340000023FEF76BFB804658B1249A01231360EB
:10235000269B002B00F0598582481860431E03938A
:10236000DFE716AB019317AB00932846DDE90C239A
:102370002EF03EF8C9F30A548346002C7ED00D9B04
:10238000CDF84C80C3F31303DDE90C0143F07F511A
:1023900041F44011A4F2FF34734B0022FDF704FF17
:1023A00065A3D3E90023FEF7B7F865A3D3E90023BB
:1023B000FDF7FCFE064620460F46FEF743F862A3F3
:1023C000D3E90023FEF7A8F802460B46304639460B
:1023D000FDF7ECFE06460F46FEF768FB002282463C
:1023E000002330463946FEF723FB48B15046FEF73E
:1023F00029F832463B46FEF711FB08B90AF1FF3ACD
:10240000BAF1160F57D8594B03EBCA03D3E900238F
:10241000DDE90C01FEF70CFB00284ED00AF1FF3A73
:1024200000230F93169B1C1B631E099345BFC4F129
:1024300001030693002300234CBF09930693BAF1CE
:10244000000F3CDB099BCDF838A0534409930023CF
:102450000A93229B092B00F28D80052BC4BF043BFD
:102460002293229BA3F10203CCBF00240124032B5F
:1024700000F28C80DFE803F02D4F4D5BDDE9164361
:102480001C4404F23243202BC3BFC3F1400304F2C7
:10249000124009FA03F3C3F12003C6BF26FA00F085
:1024A000184306FA03F0FDF7BDFF0123A1F1F8710F
:1024B000013C139370E70123B3E70F90B2E7069B4B
:1024C000A3EB0A030693CAF100030A9300230E93B9
:1024D000BFE700230B93239B002B5ADC4FF001092D
:1024E000CDF820904B46CDF88C90686A002242606F
:1024F000042202F114069E42416850D928462DF06C
:10250000BFFC039000284ED1194B02464FF4D57101
:10251000CEE60123DEE700230B93239B0AEB03099E
:1025200009F10103012B0893B8BF0123DDE7012363
:10253000F2E700BFAFF3008061436F63A787D23F2C
:10254000B3C8608B288AC63FFB799F501344D33FA2
:10255000A45C0400BB5C04000000F07FA05C0400ED
:10256000975C0400E90904000000F83F30BE030056
:102570002F5D04000124002322930B944FF0FF39B8
:102580000022CDF8209012232392AEE701230B9373
:10259000F4E7DDF88C90CDF820904B46A5E70131AB
:1025A00041605200A5E76B6A039A1A60089B0E2BE4
:1025B00000F2A880002C00F0A580BAF1000F34DDF5
:1025C0009A4A0AF00F0302EBC303D3E900341AF46A
:1025D000807FCDE910344FEA2A1416D0944BDDE900
:1025E0000C01D3E90823FEF7C1F8CDE9040104F09A
:1025F0000F0403278E4E54B9DDE91023DDE90401F1
:10260000FEF7B4F8CDE9040129E00227F2E7E1077B
:1026100008D5DDE91001D6E90023FDF77DFFCDE9FE
:102620001001013764100836E5E700F0A580CAF113
:1026300000047E4B7E4E04F00F0203EBC203D3E98D
:102640000023DDE90C01FDF767FFCDE9040124114A
:1026500000230227002C40F08480002BD2D10F9B56
:10266000002B00F08B80DDE90434CDE91034DDE986
:102670001001704B0022FEF7DBF900287ED0089B8A
:10268000002B7BD0B9F1000F38DDDDE910016A4B7A
:102690000022FDF741FFCDE904010AF1FF380137BF
:1026A0004C463846FDF7CEFEDDE90423FDF734FF46
:1026B000624B0022FDF77AFDA1F15076CDE91001C1
:1026C0001196002C5DD1DDE904015D4B0022FDF780
:1026D0006BFD02460B46CDE90423109A3346FEF704
:1026E000C5F9002840F09C82DDE90401109A06F14A
:1026F0000043FEF79DF9002840F09082DDE90C349C
:10270000CDE90434179B002BC0F25281BAF10E0FB1
:1027100000F34E81454B03EBCA03D3E90034CDE906
:102720000634239B002B80F2DB80089B002B00F3F8
:10273000D78040F07282424B0022DDE90601FDF7AE
:10274000EBFEDDE90423FEF787F9089C2646002806
:1027500040F04882039F312307F8013B0AF1010A48
:1027600044E2E20705D5D6E90023FDF7D5FE01379F
:102770000123641008366DE7022770E7089CD046F5
:102780008FE70399294B214412910B9903EBC40362
:10279000DDE9106753E90223002955D029490020BB
:1027A000FDF7E4FF3B463246FDF7FEFCCDE91001A4
:1027B000039FDDE90401FEF779F90446FDF742FEC7
:1027C00002460B46DDE90401FDF7EEFC303402461B
:1027D0000B46CDE9042307F8014BDDE91023FEF792
:1027E00027F9002874D1DDE9042312490020FDF700
:1027F000DBFCDDE91023FEF71BF9002840F0B78071
:10280000129B9F423FF47AAFDDE910010A4B002290
:10281000FDF782FE084BCDE910010022DDE904013D
:10282000FDF77AFECDE90401C3E700BF30BE030027
:1028300008BE03000000F03F0000244000001C40E0
:10284000000014400000E03F30463946FDF764FECA
:10285000CDE91001129B039C1493DDE90401FEF7FE
:1028600025F91590FDF7EEFD02460B46DDE9040162
:10287000FDF79AFC159B303304F8013B129B9C42F8
:1028800006460F464FF0000224D1A44BDDE91001AB
:10289000FDF78CFC02460B4630463946FEF7E6F85B
:1028A000002863D1DDE910239C490020FDF77CFC62
:1028B00002460B4630463946FEF7BAF800283FF488
:1028C0001DAF149F7B1E149317F8013C302BF8D0DA
:1028D000C2463BE0924BFDF71FFECDE90401BCE789
:1028E000DDE90489039FDDE9062340464946FDF7FB
:1028F0003DFFFEF7DBF80446FDF7A4FDDDE9062306
:10290000FDF70AFE04F1300602460B4640464946F2
:10291000FDF74AFC07F8016B039EDDF820C0BE1BE3
:10292000B44502460B4636D1FDF740FCDDE90623EF
:1029300080468946FEF79AF858BBDDE906234046F3
:102940004946FEF76BF808B1E10722D428465946FC
:102950002DF0D6FA00233B70249B0AF10100186089
:10296000269B002B3FF4DDAC1F60DAE427463B4694
:102970001F4613F8012D392A07D1039A9A42F7D13D
:102980000399302208F101080A701A7801321A708E
:102990009EE7D046EBE7624B0022FDF7BDFD00222B
:1029A000002380468946FEF739F800289BD0CDE702
:1029B0000B9A002A00F0D080229A012A00F3B280FC
:1029C000139A002A00F0A68003F233430A9C069F64
:1029D000069A1A440692099A01211A442846099235
:1029E0002DF0F6FA0646002F0CDD099B002B09DDC1
:1029F000BB42069AA8BF3B46D21A0692099AFF1A12
:102A0000D31A09930A9BF3B10B9B002B00F0A8800B
:102A1000002C10DD3146224628462DF097FB5A4601
:102A20000146064628462DF0E9FA594680462846D2
:102A30002DF066FAC3460A9B1A1B04D05946284655
:102A40002DF084FB8346012128462DF0C1FA0E9B10
:102A5000002B044640F386801A46014628462DF096
:102A600075FB229B012B04467FDD4FF00008236994
:102A700004EB8303186938F070FCC0F12000099B57
:102A8000184410F01F0000F09280C0F12003042BC6
:102A900040F38A80C0F11C00069B03440693099B07
:102AA000034407440993069B002B05DD59461A464B
:102AB00028462DF0A5FB8346099B002B05DD21460A
:102AC0001A4628462DF09CFB04460F9B002B70D025
:102AD0002146584638F08EFC00286ADA0023594611
:102AE0000A2228462DF02EFA0B9B0AF1FF3A834664
:102AF000002B00F09481314600230A2228462DF055
:102B000021FAB9F1000F064600F39380229B022BB5
:102B100057DC8EE0169BC3F1360357E70000E03F19
:102B200000002440089B5C1E0A9BA342BFBF0A9B77
:102B30000A94E21A0E9BB6BF9B181C1B0E93089BAF
:102B4000B8BF0024002BB9BF069B089A069F089BBC
:102B5000BCBF9F1A00233BE70A9C069F0B9E42E7DF
:102B60000A9A6BE7229B012B19DC049BBBB9059BDE
:102B7000C3F313039BB9059B23F000431B0D1B05F7
:102B800083B1069B01330693099B013309934FF0F0
:102B900001080E9B002B7FF46AAF01206FE74FF016
:102BA0000008F6E79846F4E73FF47DAF18461C307E
:102BB00072E7089B002B36DC229B022B33DDDDF80D
:102BC0002090B9F1000F0DD121464B460522284631
:102BD0002DF0B8F901460446584638F00BFC0028A1
:102BE0003FF7B8AD239B039F6FEA030A4FF000083D
:102BF000214628462DF084F9002E3FF4A7AEB8F107
:102C0000000F05D0B04503D0414628462DF078F995
:102C1000314628462DF074F998E600242646E1E76F
:102C2000C246264696E50B9BDDF82090002B00F06F
:102C3000FD80002F05DD31463A4628462DF0E0FAAA
:102C40000646B8F1000F5CD0716828462DF018F9DF
:102C5000074628B9804B024640F2EA21FFF728BB1D
:102C600032690232920006F10C010C3038F0DBF8C8
:102C70000122394628462DF0C3FA039B01330893FD
:102C8000039B4B440A93049B03F00103B046099352
:102C90000646089B2146013B5846049338F07CFACF
:102CA000034630330690414658460B9338F0A2FB5A
:102CB00032468146214628462DF012FBC2680B9B06
:102CC000074602BB0146584638F094FB0B9B024670
:102CD00039462846CDE90B322DF012F9229B0C9A89
:102CE000089F43EA0201099B0B430B9B0DD1392B33
:102CF00029D0B9F1000F01DD069B3133049A13701E
:102D000076E73046B9E70122E2E7B9F1000F06DBCA
:102D1000229941EA0909099959EA010120D1002AB9
:102D2000ECDD59460122284608932DF069FA214628
:102D3000834638F05FFB0028089B02DCDED1DA070F
:102D4000DCD5392BD8D1049A392313703B461F4662
:102D5000013B17F8012C392A50D001321A7047E78D
:102D6000002A03DD392BEED00133C7E7089A0A9910
:102D700002F8013C8A422AD0594600230A222846FA
:102D80002DF0E0F8B04583464FF000034FF00A0203
:102D90004146284607D12DF0D5F880460646089BC7
:102DA0000133089375E72DF0CDF8314680460023B6
:102DB0000A2228462DF0C6F80646F0E7B9F1000FC2
:102DC000039ACCBF4F46012717444FF000085946DD
:102DD0000122284608932DF013FA2146834638F045
:102DE00009FB0028B2DC02D1089BDB07AED43B46CE
:102DF0001F4613F8012D302AFAD0F9E6039A9A42B9
:102E0000A5D10AF1010A312379E7144BFFF7A7BADC
:102E1000269B002B7FF480AA114BFFF7A0BAB9F1D3
:102E2000000F03DC229B022B3FF7CBAE039F214612
:102E3000584638F0B1F900F1300307F8013B039A26
:102E4000BA1A9145BADD594600230A2228462DF0C8
:102E500079F88346EBE700BF2F5D0400E809040022
:102E6000975C0400F0B58BB000F01CFC002007F06C
:102E7000C7F9014628B133480BB0BDE8F04030F047
:102E80006FB9314830F06CF93049314833F0B4FD56
:102E90000146F8B12F4830F063F92F4D2F4E304FD7
:102EA00041F69A120023284628F08CFE10B93046CD
:102EB00000F072FC4FF400420023384628F082FEF6
:102EC0000028EDD1274C208800F004F9208800F07C
:102ED0000FFAE5E7244830F043F930F0AAFE10215C
:102EE00002A836F030F802A81CF012F810F1780FA2
:102EF000014618D11D4830F033F906AC10212046A8
:102F000036F021F8012300930023194601941A4654
:102F100002A80CF0A7FA10F1780F01460CD1144862
:102F200030F01EF9B9E708B11248B4E7124830F0A2
:102F300017F900F027FAE0E708B11048ABE71048AE
:102F4000EEE700BFF6CE030016CF0300D804002042
:102F5000B00300202DCF0300602C0020DD530020A3
:102F6000002C0020C852002050CF030069CF03007E
:102F7000A8CF03007CCF03009BCF0300BFCF03008B
:102F8000DDCF030070B51B4E33780546EBB9837B6C
:102F9000A02B1BD1C37BC3B940F6012420461CF0F3
:102FA00053F8034660B91946224628460CF0A2F9A8
:102FB00021460246104830F0D3F80123337004E074
:102FC0000134A4B2B4F5216FE8D170BDB02BFCD1AF
:102FD000C37B002BF9D140F6013420461CF034F8B5
:102FE00003460028DFD00134A4B2B4F5316FF4D128
:102FF000EBE700BFDC530020F5CF030010B50A4615
:103000000146084830F0ACF8074C01220021204668
:1030100037F04EFD054B01221A802046BDE81040D6
:1030200028F08CBD23D00300002C0020C8520020C3
:1030300010B501460648144630F092F8054B1C8046
:10304000054B00221A700548BDE8104028F076BDF7
:103050005AD00300C8520020DC530020002C00206E
:10306000014830F07DB800BF97D00300014830F030
:1030700077B800BFBFD0030070B40D4C0D48236873
:103080008D8820F813505D1C568820F81560DE1CD2
:103090000233B2F9005020F813502660B2F9003024
:1030A0008988B2F90220044870BC30F059B800BFDA
:1030B000442C0020CA520020F1D00300014830F017
:1030C0004FB800BF08D10300014830F049B800BF35
:1030D00022D103002DE9F04F9DB0002506468DF862
:1030E0001B501BF0B1FF044630B90146734830F065
:1030F00037F81DB0BDE8F08F28461BF0D1FF10B99E
:1031000001466F48F3E7012E218A00F104000DF11A
:103110001B0638D1628A2B46CDE9000610461BF00B
:1031200055FB9DF81B20014600B932B3654830F0CD
:1031300017F8228A608A019641F210031146009323
:10314000002335F0A6F99DF81B20014600B9BAB15D
:103150005D4830F005F8BFF35B8F04F1280353E8B6
:10316000002F42F0010243E800210029F7D1BFF30C
:103170005B8F204635F04AFBBBE754481146D6E743
:1031800053481146E5E713AB4FF41012CDE909237C
:10319000CDE9000608932A462B4628461BF016FB6D
:1031A0009DF81B20014600B912B14A482FF0D8FF04
:1031B000002208AD218A0095104633461BF08AFA9A
:1031C0009DF81B20014600B912B143482FF0C8FFFB
:1031D00029460FA835F0B0F9014610B13F482FF04D
:1031E000BFFF258ADFF8F890DFF8F8800BA90FA859
:1031F00035F0C2F960B9BFF35B8F04F1280353E8DF
:10320000002F42F0010243E800210029AFD0F6E789
:10321000DDE90C23344829462FF0A2FF00271FFACE
:1032200085FA0C9BBB4209D8DFF8C0A000271FFA23
:1032300085FB0D9BBB421FD80135D7E739460BA84C
:1032400035F0BEF90128834614D90246294648467E
:103250002FF086FF0023218A5246CDE900B618469A
:1032600035F017F99DF81B20014600B912B1404610
:103270002FF076FF0137D4E739460BA835F0A9F9CE
:10328000294682B2030C07905046CDE904232FF063
:1032900067FF059B218A049A0093002301920296FE
:1032A0005A46184635F002F99DF81B20014600B930
:1032B00012B140462FF054FF0137BAE73BD103006B
:1032C0005BD103006ED10300BCD1030099D1030090
:1032D000E8D103000CD2030036D203006BD2030006
:1032E000B9D20300DED2030097D20300FCD2030060
:1032F0001FB50246012A4FF000008DF80F003BD1A8
:1033000041F210030DF10F041146009301944DF2A8
:10331000010335F0DDF89DF80F2052EA0003014665
:1033200002D017482FF01CFF012241F21003114672
:10333000009301944CF20103002035F0C9F89DF888
:103340000F2052EA0003014602D00D482FF008FF7B
:10335000012241F210031146009301944DF2020341
:10336000002035F0B5F89DF80F2052EA0003014621
:1033700002D003482FF0F4FE9DF80F0004B010BDFA
:1033800026D30300002110B508461BF077FE044643
:1033900028B90146BDE8104005482FF0E1BE1021D4
:1033A000043035F0D0FD2046BDE8104035F042BA7B
:1033B00053D3030084B030B58BB00FAC84E80E005B
:1033C0000DF117030193012206AB0546ADF80E007F
:1033D00000930020114641F21003CDE907008DF85B
:1033E0001700ADF81850ADF8240035F08FF89DF8AF
:1033F000171001430FD0014613482FF0B1FE0323ED
:1034000001220DF10E01052000F076F90BB0BDE8A8
:10341000304004B070470D4B0D48224637F0D0F9CC
:10342000014620B10B482FF09BFE0223E8E7BDF9CF
:103430003C30BDF93E20BDF80E1007482FF090FE3D
:1034400001231A46DDE700BF76D30300482C002095
:103450002001002097D30300B9D3030030B58BB00F
:103460000346ADF818300DF117030193012206ABA6
:10347000ADF80E0000930020114641F21003CDE993
:1034800007008DF81700ADF8240035F03FF89DF8DF
:10349000171001430CD0014610482FF061FE0323A2
:1034A00001220DF10E01042000F026F90BB030BD11
:1034B0000B4A0C4837F064F9044628B101460A4823
:1034C0002FF04EFE0223EBE7084D09492A6801233D
:1034D000042000F011F92C60E8E700BF76D3030068
:1034E000482C002020010020D8D30300442C0020C9
:1034F000CA5200201FB5ADF806001BF0A5FDBDF8AF
:103500000610044658B912482FF02AFE0323012260
:103510000DF10601104600F0EFF804B010BD0DF1FA
:103520000F0200201BF0D4F9024630B1BDF806109E
:1035300008482FF015FE0223E9E70121204635F067
:1035400056F901231A460DF106011846E3E700BFBC
:10355000FAD3030017D403002DE9F0412E482F4C75
:10356000DFF8BC8092B02FF0FBFD0F270026254628
:10357000238BBBB1BFF35B8F09AA236BBFF35B8FB8
:103580002123102104F11D002FF05FFD12AB03EB8E
:103590004603218B23F8441C227F09AB40460136A9
:1035A0002FF0DEFD013F04F12C04E1D1012332466E
:1035B00001A9032000F0A0F81A482FF0D1FDB5F8BA
:1035C0009C224FF6FF739A420BD009AA102116488D
:1035D00021232FF03AFDB5F89C12144809AA2FF0C8
:1035E000BFFD13482FF0BCFDB5F8C0224FF6FF73A6
:1035F0009A420DD0212309AA10210E482FF025FD53
:10360000B5F8C222B5F8C0120B4809AB2FF0A8FDDF
:1036100012B0BDE8F08100BF35D40300940900204A
:1036200055D4030069D40300330C00209ED403005A
:103630007FD40300580C002095D4030073B50446D2
:1036400083685B6CDBB9144D144EA3685B6B13B1DC
:1036500020469847B0B1A3689B6923B101220DF1C0
:103660000701204698479DF807202B78FE2A0BD1AA
:1036700073B10B4828F062FA00232B7002E09847E0
:103680000028E0D102B070BD0E2BDED8FD2ADCD0C0
:10369000591CF2542970D8E7ED530020DD53002067
:1036A000602C002010B50F4C0F48206037F080F9D7
:1036B00020B9BDE810400D482FF052BD2268936834
:1036C00023B19B6C13B10A49104698472068836860
:1036D0009B6A03B198470748BDE8104001220021CA
:1036E00037F0E6B95C2C0020C4B60300ABD403006D
:1036F0003D360000602C00202DE9F84F54001E4696
:10370000E31D144423F00703073400AF24F007043B
:10371000ADEB030DEA46ADEB040D1E4C80460D46A5
:103720002068FD2191462FF01AFC414620682FF0B9
:1037300016FC023D0DF101084FF0000BCB450AF1DC
:10374000020A0AD1206831462FF009FC2068FE21C8
:103750002FF005FCBD46BDE8F88F35F8020F08F1E3
:10376000FF31000A0AF8020C2FF062FC18F8011C65
:1037700020682FF0F4FB28780AF8010C41462FF05E
:1037800057FC18F8021B20682FF0E9FB0BF1010B26
:10379000D4E700BF5C2C002030B51D4C1D482178BB
:1037A00089B02FF0DDFC2378013B042B0AD8DFE839
:1037B00003F003090D101700B4F8010040BA80B2FD
:1037C000FFF798FE4FF0FF3009B030BDFFF7C4FEA1
:1037D000F8E7B4F8010040BA80B2FFF73FFEF1E726
:1037E000B4F80330B4F801505BBAADF80C30B4F85B
:1037F00005305BBAADF80E3008AB13E903008DE875
:1038000003006DBA03AB0ECBA8B2FFF7D3FDD9E727
:10381000DD530020C3D403002DE9F04F93B092464E
:1038200001911F460446002840F0B98140F25F3301
:10383000A04AA149A1482FF03EFE9E4840F25F31C8
:103840002FF032FE019BABB99D499C48994AC42395
:103850002FF031FE9748C4212FF026FE2078A17862
:10386000667801EB800121444FF00009B1451AD37D
:103870000B1B0193A5780395F5B11C9B03F0010385
:10388000E278029212B11C9A920717D4B3B9BAF136
:10389000000F03D001993A462046D047019E30469A
:1038A00013B0BDE8F08F4D1C2846FDF797FA411C78
:1038B000294409F10109D9E72B46E1E794F8009082
:1038C0004FEA8902059204EB8909BAF1000F5BD136
:1038D000019EA3B34D4457464D451ED1A9461C9B9E
:1038E000DDF808A0DFF8DC81774903F0050B4D46D1
:1038F000CA4403F00202AA45D1D015F8010B54F8CE
:103900002000404525D3884223D21C9BDB0738D4B6
:10391000BBF1000FEFD1013EEDE719F8013B54F880
:103920002300FDF75BFA1D9B013033B11E9B9F42C4
:103930003EBF1D9B23F8170001370644CCE735B185
:103940001C9A12F00407CAD0A9441F46C7E72F46A5
:10395000C5E7002ACFD04FF000090192FDF73EFAEB
:103960001D9B019A5849013033B11E9B9F423EBFB7
:103970001D9B23F8170001370644B9F1000FBAD098
:10398000C6E74FF00109E8E7002B40F0FC8025B1C5
:103990001C9A510700F1FF801D46A846039BDFF8E3
:1039A00014B14A4E9944029B4B4404931C9B03F070
:1039B0000101049B994549D11C986678237810F041
:1039C000020F06EB0502D2B20CBF404600200029D0
:1039D00040F0A9801C9911F0040F14BF414600214A
:1039E0000793E37894F802B06270A170E0700599D3
:1039F00006933A462046D047B0F10009C0F2BF8096
:103A0000079B2370069B667084F802B0E3703A4609
:103A100041460EA8D047061EFFF641AFDDE9023150
:103A20001944059B04981944019B3A46591AD047FA
:103A30000028C0F2A6804E4406444FF000094D45D0
:103A400073DC00213A460846D04728E799F8003051
:103A50001C4A54F82330934202D31B4A93420FD39B
:103A60001C9B9A0753D4B8F10F0F45D93146134820
:103A700040F2FF335A462FF01EFD40F2FF3138E08E
:103A800041B30F2D0BD912490C4840F2F2335A467C
:103A90002FF011FD40F2F23158462FF005FD12AA29
:103AA0006B1C154499F8002005F8202CDDB209F1B3
:103AB00001097BE7D9D403008BD5030007D50300A8
:103AC0008ED5030074B50300F85D0400C5D503006E
:103AD000A6D503001C9B5B07E9D5B8F10F0F0BD9E6
:103AE0003146314840F2F5335A462FF0E4FC40F2BB
:103AF000F53158462FF0D8FC12AA08F10103904482
:103B000099F8002008F8102C5FFA83F8CFE70F2D02
:103B1000C5D9264924484FF47F735A462FF0CBFC71
:103B20004FF47F71B8E700215AE70AAB13F8093068
:103B30008DF8273054F823B01D9BEBB133F8198072
:103B40003A4601210DF12700D047002819DB064431
:103B5000B8F1000F06D15846FDF740F900F1010811
:103B60001FFA88F83A4641465846D047002808DBF5
:103B7000064409F1010962E7DDF87480E0E74E468A
:103B80008DE606468BE60AA84FF00008039A4946E0
:103B900037F049F902E7A8460EA81D46F6E7019B53
:103BA000002B7FF467AE59E607D50300A6D50300C6
:103BB00030B50A4C0A44914200D130BD11F8013BA6
:103BC00058400309E35C83EA0013DDB2C3F3031337
:103BD000E05C80EA0510C0B2EDE700BFE5D5030068
:103BE000436803F00303022B70B504460E46816060
:103BF00010D0032B04D0012B0FD10025284601E063
:103C0000056800200023636010B131462AF0B6FF3A
:103C1000284670BD00680025F4E7064A06490748B3
:103C200045232FF048FC034845212FF03DFC00259B
:103C3000E7E700BFF5D50300E809040007D5030056
:103C4000014B1B68184700BFE8040020014B1860B7
:103C5000704700BFE804002007B50B46002102466C
:103C60000091034800F00AFD03B05DF804FB00BFBB
:103C7000413C000030B587B00025CDE90301044682
:103C8000009503A90548059500F0F8FCDDE904302E
:103C90009842B8BF255407B030BD00BF3B31030088
:103CA0002DE9F74FB0F81C90009219F0080F044668
:103CB00022D001290CBF49F0100949F02009A0F8D1
:103CC0001C901434204627F0B9FB68B99B4A9C49E4
:103CD0009C48B9232FF0EFFB9B4821462FF0EBFBCC
:103CE0009648B9212FF0E0FB009B83F31188BFF3C6
:103CF0006F8F03B0BDE8F08F944FDFF8488209F072
:103D00000709022906D120462FF044FA0028D8D00E
:103D1000012864D1D4F818B0A38BBBF1000F19DAD5
:103D20000026256823F00703C4E9006643F0010379
:103D3000A383A38B03F007024A45019203D0A26834
:103D4000002A40F0138115B9002E00F059814FF080
:103D5000000A0DE103F00702511F012920D80021BC
:103D600023F00703062A25689BB2C4E900110AD193
:103D70003DB1E28B29460968013292B20029FAD19D
:103D8000E28343F00203A38320462FF003FA0646A2
:103D90000028CED0A38B43F02003A3830026C8E7DE
:103DA000042A0DD123F007039AB2A28320462FF0F4
:103DB000F1F9054688B142F02002A2830025EDE723
:103DC000634940F21B133A4640462FF074FB40F221
:103DD0001B1138462FF068FB00252E46A9E7032863
:103DE00034D1B9F1000F0BD05A4940464FF4AB73B0
:103DF0003A462FF060FB4FF4AB7138462FF054FB7E
:103E000023685BB95449404640F257133A462FF0B5
:103E100052FB40F2571138462FF046FB23691E68CB
:103E20005EB94E4940464FF4AD733A462FF043FB1E
:103E30004FF4AD7138462FF037FBA38B23F0070307
:103E400043F00603A3830025AB4672E7042831D173
:103E5000B9F1020F0BD04249404640F25D133A4699
:103E60002FF029FB40F25D1138462FF01DFBE38B4C
:103E70005BB13C4940464FF4AF733A462FF01BFB11
:103E80004FF4AF7138462FF00FFB23695E685EB9BF
:103E90003249404640F261133A462FF00CFB40F2A3
:103EA000611138462FF000FBA38B23F0070343F08A
:103EB0000403C7E7052831D1B9F1010F0BD02A4916
:103EC00040464FF4B2733A462FF0F5FA4FF4B27110
:103ED00038462FF0E9FA23685BB91F49404640F2A3
:103EE00065133A462FF0E7FA40F2651138462FF095
:103EF000DBFA23699E685EB9184940464FF4B473F3
:103F00003A462FF0D8FA4FF4B47138462FF0CCFA75
:103F1000A38B23F0070343F0050393E70C4940F21A
:103F20006B133A4640462FF0C6FA002540F26B115B
:103F300038462FF0B9FA2E4686E700BFBBD60300FD
:103F4000E8D6030007D50300FFD6030018D6030008
:103F5000E80904003AD6030046D6030069D60300F8
:103F600080D6030096D60300A5D603004FF0010AC1
:103F700043F0080304F11409A383484627F05EFACE
:103F800068B9384A3849B92340462FF094FA37487F
:103F900049462FF090FA3348B9212FF085FA009B5B
:103FA00083F31188BFF36F8FBAF1000F37D1002D63
:103FB00047D116B12E492046B0474FF02003EFF30A
:103FC000118B83F31288BFF36F8F4846CDF800B092
:103FD00027F026FA68B9234A26498E2340462FF057
:103FE0006AFA254849462FF066FA1E488E212FF0BE
:103FF0005BFA484627F032FAA38B23F00803A38329
:10400000A38BDA0625D523F01003A3830121B4F88E
:104010001C9009F0070900297FF473AE51E6A168EE
:104020000029C4D0D1F800A04B68019A9C462046D4
:104030005B46E047BAF1000FB9D05146DAF800A06C
:10404000F2E72946019A2D685B4620462FF0BEF81C
:10405000ADE713F020011EBF23F02003A38302214C
:10406000D5E700BFBBD60300E8D60300FFD60300A8
:104070007D40000014D7030029D70300F8B504469B
:104080000D4600F114064FF02003EFF3118783F380
:104090001288BFF36F8F304627F0C2F968B90C4A17
:1040A0000C490D488E232FF006FA0C4831462FF0AC
:1040B00002FA07488E212FF0F7F9304627F0CEF9A3
:1040C000A5613A4620460121BDE8F840FFF7E8BD6A
:1040D000BBD6030014D7030007D5030029D703007C
:1040E0002DE9F04704460F462FF086F8051E5EDBEB
:1040F00004F114094FF02003EFF3118A83F31288BF
:10410000BFF36F8F484627F08BF968B9384A3949B1
:1041100039488E232FF0CFF9384849462FF0CBF994
:1041200033488E212FF0C0F9484627F097F9E38BEA
:10413000A28B4FF6FF718B4202F0070650D0022E81
:1041400024D10133E38335464FF00108484627F078
:1041500075F968B9264A2A492748B9232FF0ABF9DF
:10416000284849462FF0A7F92148B9212FF09CF99A
:104170008AF31188BFF36F8FB8F1000F17D00023B7
:104180003246394620462FF021F810E0930701D03F
:10419000062E0FD100233B606368F3B9C4E90077B2
:1041A0003546FEB9524602212046FFF779FD2846E2
:1041B000BDE8F087052E18D0012E0BD012490E480D
:1041C000124A4FF4E4732FF076F910484FF4E4717B
:1041D0002FF06AF96FF0040504E01F606760DFE705
:1041E0006FF00A054FF00008B0E76FF08505F9E7BA
:1041F000BBD6030014D7030007D5030029D703005B
:10420000E8D60300FFD60300A5D6030018D60300A6
:1042100070B5044600F114054FF02003EFF311864A
:1042200083F31288BFF36F8F284627F0F9F868B937
:10423000274A284928488E232FF03DF92748294648
:104240002FF039F922488E212FF02EF9284627F039
:1042500005F9A38B03F00703022B1CD0012B0CBF25
:104260006FF004046FF08504284627F0E7F868B97A
:10427000174A1B491848B9232FF01DF91948294638
:104280002FF019F91248B9212FF00EF986F3118891
:10429000BFF36F8F18E0E38B5BB913490E48134AE5
:1042A00040F2EF132FF007F9104840F2EF112FF012
:1042B000FBF8E38B013B9BB2E3833BB920463246DC
:1042C0000221FFF7EDFC0224204670BD0224CBE75B
:1042D000BBD6030014D7030007D5030029D703007A
:1042E000E8D60300FFD6030041D7030018D6030029
:1042F000F8B50D46002939D006680C1FA41BE70845
:1043000024F0070434446388DB070DD4184A1949A4
:104310001948AC232FF0CFF8184829462FF0CBF8D6
:104320001348AC212FF0C0F8394630462EF090FFEC
:10433000384436F83030C01A87420DD00C4A104944
:104340000D48B4232FF0B7F80E4829462FF0B3F8E4
:104350000748B4212FF0A8F8638823F00103638095
:1043600039463046BDE8F8402FF02EB8F8BD00BF02
:104370004FD7030070D7030007D5030081D7030090
:10438000B9D70300DFD703004B422DE9F04703EA1A
:10439000010731EA0303066814461FD0042F3D4687
:1043A000B94628BF0425CF1B07F1FF3A1AEA070FC9
:1043B0000ED03349334A34484FF4A0732FF07BF8C2
:1043C00032482FF078F82F484FF4A0712FF06CF896
:1043D0007CB94FF000094846BDE8F087042904D8AD
:1043E000BDE8F04711462FF020B84FF00009042532
:1043F000DAE7B368B3EBD40FEBD904F10B0139441E
:10440000491BC90830462EF079FF80460028E0D0CD
:1044100009F1040505EBC005354455447F422F40A2
:10442000A7EB09094C44A9F1040307349B1B24F0B2
:104430000704A41BB0EBD30F4FEAD3074FEAE40401
:1044400008D201463A4630462EF0A4FF4146304697
:104450002EF003FF394630462EF0FAFE38448442EF
:1044600007D2304622462EF095FF214630462EF0E8
:10447000F4FE06EBC706738843F001037380AAE7D6
:104480001BD803004FD7030007D5030036D803001D
:10449000B2F5802F2DE9F04104460E4617466AD347
:1044A0003E493F4A3F4840F2E3132FF004F83E48AC
:1044B0002FF001F840F2E31139482EF0F5FF043FE8
:1044C000F51D3E4425F0070526F00706761B172E3E
:1044D0004FEAD6070ED83549314A324840F2F31335
:1044E0002EF0E9FF32482EF0E6FF2D4840F2F3119E
:1044F0002EF0DAFF2560B7FA87F4C4F12008C4F182
:104500002404A40007340023E408EB60631CBB42CE
:10451000AF600ED92749224A22484FF401732EF08A
:10452000CAFF23482EF0C7FF1D484FF401712EF03B
:10453000BBFF05F1100303EB88080022984529D141
:10454000630043F001036B8005EBC4013B1B580083
:104550002A804880A91925F834404A80AB5305EBDE
:10456000C70321465A8842F0010228465A80BDE816
:10457000F0412EF072BE042AA1D80F49084A09481A
:104580004FF4F5732EF097FF09482EF094FF4FF487
:10459000F57191E743F8042BD0E700BF53D803002F
:1045A0004FD7030007D5030069D80300BAD803002A
:1045B000A1D80300E3D8030080D80300F0B5084E6B
:1045C000026803460A270020114601320C78A55DD7
:1045D0006D0701D41960F0BD07FB00403038F3E7E8
:1045E000585B04002DE9F84F15469A46D378224AC5
:1045F00013F802B06F2B80460F460BF0030B29D047
:1046000024D8582B14BF0A261026DDF828903246ED
:10461000002340463946FCF791F9092AD4B21ED846
:104620003034B045E4B277F1000309F8014D01D30D
:10463000D14511D82B789B0605D5082E15D1AB781E
:1046400043F00803AB704846BDE8F88F03F0F7036A
:10465000702BD7E70826D8E780460F46D7E7BBF18F
:10466000010F0CBF37345734DBE7102EEBD1AB789A
:1046700043F01003E6E700BF585B04002DE9F04F5C
:10468000824693B08B4691461C46002599F800005F
:1046900008B9284641E309F101032528029306D011
:1046A0005946D0470028C0F238830135F5E1182279
:1046B00000210CA836F0F2FB99F80130252B5AD0D6
:1046C00009F10102164612F8013B2B2B00F08B80FA
:1046D00079D8202B00F08C80232B00F08E809DF861
:1046E000383003F04402442A03D16FF386138DF867
:1046F00038309DF83830059643F080038DF8383017
:1047000033782A2B7ED19DF8393043F001038DF8A0
:104710003930731C05931A782E2A9DF839200CBF66
:104720000121002161F341028DF839200BD15A1C7F
:1047300005925A782A2A7BD19DF8392042F004024A
:104740008DF839200233194611F8010B6C2800F05E
:10475000B6807DD8682800F084806A2800F0B9808F
:104760004C2800F0BD809DF839206FF3C6028DF80B
:104770003920194680E009F1020202928DF83B309F
:104780009DF83930D90740F14A8154F8048BB8F1CB
:10479000000F07DA9DF8382042F004028DF8382027
:1047A000C8F100085A0740F1438154F8047B002FF8
:1047B00080F242819DF839306FF341038DF8393032
:1047C0004FF0FF3738E12D2B06D0302B87D19DF8E5
:1047D000383043F0400303E09DF8383043F00403E1
:1047E0008DF838306EE79DF8383043F00803F7E76E
:1047F0009DF8383043F01003F2E79DF8383043F06D
:104800002003EDE705A8FFF7D9FE059BB34281D051
:104810009DF838100F90C1F3400242EAD072520066
:1048200062F07F0201F07D010A438DF8382071E7C4
:1048300005A8FFF7C3FE9DF838301090C3F340027F
:1048400042EAD07060F341038DF83830059B7AE777
:1048500074289DF8392040D07A2884D11346062246
:1048600028E05A78682A9DF8392021D1012161F386
:10487000C6028DF83920991C0B4613F8012B0293C0
:10488000782A9DF839308DF83B2000F2C080572AF5
:1048900033D8412A03D0453A022A00F2B8809DF865
:1048A0003A30042262F302038DF83A30012385E0A6
:1048B0001346022262F3C6038DF83930DCE75A78DA
:1048C0006C2A9DF8392001D10421D0E71346032238
:1048D000F0E79DF839300522ECE713460722E9E7B7
:1048E000BDF8383023F4F04323F0020343F480434F
:1048F00043F00203ADF83830BEE7A2F15801202999
:1049000000F2858001A050F821F000BFD1490000DD
:104910000F4A00000F4A00000F4A00000F4A000033
:104920000F4A00000F4A00000F4A00000F4A000023
:104930009F4800000F4A0000D14900009149000043
:104940009F4800009F4800009F4800000F4A000059
:10495000914900000F4A00000F4A00000F4A000072
:104960000F4A0000D9490000D1490000F549000074
:104970000F4A00000F4A0000F54900000F4A0000EE
:10498000D14900000F4A00000F4A0000D149000041
:104990009DF83A10012003F0780360F30201402BE8
:1049A0008DF83A1002BF9DF8381041F001018DF8E2
:1049B0003810632A31D1003B18BF01239DF83820FD
:1049C000C2F340010B4363F341028DF83820D7E670
:1049D0009DF83A100220DEE79DF83A2003F07803B4
:1049E000A3F14000032161F3020243428DF83A2013
:1049F0004341E3E79DF83A20032113F0780F61F378
:104A000002028DF83A2014BF01230023D6E79DF857
:104A1000383043F001038DF838300023CEE79DF99C
:104A20003820002AB4BFDDF83C804FF0FF38B9E6EB
:104A30009F077FF5C5AE109F9DF839100023CDE983
:104A40000F339DF83A3003F00703012BC1F3C30184
:104A500036D1CB1E042B23D8DFE803F0030909224B
:104A6000220054F8043BDA17CDE90C3206E0073493
:104A700024F00704F4E80223CDE90C239DF8383034
:104A800013F003065AD0029B4A46594650462EF070
:104A9000F5FC0028C0F241810544DDF80890F5E5F9
:104AA00054F8043B01294FEAE372CDE90C3202D1FC
:104AB0009DF93030D7E70229E0D1BDF93030D2E797
:104AC000022B29D1CB1E042B13D8DFE803F0030AF5
:104AD0000A12120022680C920023201D0D93044636
:104AE000CCE7E01D20F00700F0E80223CDE90C231D
:104AF000F5E754F8043B0C9301294FF000030D93A4
:104B000005D19DF830300C9300230D93B6E70229B0
:104B1000B4D1BDF83030F6E7042B09D1E31D23F002
:104B2000070303F10804D3E90023CDE90C23A5E72B
:104B3000032B04BF54F8043B0C939FE79DF83B0004
:104B40007828AAD8622820D825283FF4A9AD58286B
:104B5000A3D10DF12E030093DDE90C0106AB0EAAE3
:104B6000FFF740FD8146002F0DF12E000BDB9DF875
:104B70003820A0EB09036FF386129F428DF838208E
:104B800001D9FB1A0F9307463DE06338152884D8F6
:104B900001A252F820F000BF174C0000794C000031
:104BA0009B4A00009B4A00009B4A00009B4A000071
:104BB000794C00009B4A00009B4A00009B4A000081
:104BC0009B4A0000D34C0000A14C0000A54C000003
:104BD0009B4A00009B4A0000F14B00009B4A0000EA
:104BE000A14C00009B4A00009B4A0000A14C000021
:104BF000002FDDF830900ADB3946484636F0C0FA1F
:104C000009EB00070026B9F1000F0CD145E7484633
:104C1000FCF7E4F8F4E70C9B8DF8183000260DF152
:104C200019070DF11809A7EB090306B101339DF827
:104C30003A20D00666D5023352060F9948BF109A23
:104C40000B4448BF9B18B8F1000F73DD9DF8382066
:104C5000A8EB0308C2F38003039353076AD45006FA
:104C60005ED53EB159463046D047002855DB039B00
:104C700001351E46302354E01E070FD413F01006F2
:104C800018BF2026DDE90C23002BBFF662AF52428D
:104C900063EB4303CDE90C232D265AE72B26F1E7DE
:104CA000002656E70C9840B30DF12E0300930EAA90
:104CB00006AB0021FFF796FCBDF83A3003F0EF0396
:104CC00043F4F04343F010038146ADF83A30002638
:104CD00049E70C9B07293FF6E0AEDFE801F00C0442
:104CE000060C08080C0C1D70D7E61D80D5E6EA17E7
:104CF000C3E90052D1E61D60CFE62E4F0646A7F16C
:104D0000050990E7110748BF013395E71846594652
:104D10000393D0470028039B04DA13B0BDE8F08F5B
:104D2000202345444246002AA5EB080108F1FF383C
:104D3000ECDC0D462EB159463046D0470028ECDB5E
:104D400001359DF83A30D90601D41A0705D55946E0
:104D50003020D0470028E0DB01359DF83A30DB06F3
:104D600006D59DF83B005946D0470028D5DB0135D4
:104D70000F9E2E44731B002B15DC3B464A465946BA
:104D800050462EF07BFB0028C7DB0544A844A8EB67
:104D90000503002B7FF781AE59462020D04700281D
:104DA000BBDB0135F3E759463020D0470028B4DBA0
:104DB0000135DFE713D9030038B50D46044620223C
:104DC000002136F06BF8EB68E361AB686A68A361B9
:104DD0002B6823620023A36262622B6922B1511EF9
:104DE000114208BF43F0010323610122002104F1B5
:104DF0002C0035F05DFE58B106490748074A2E23BE
:104E00002EF059FBBDE8384004482E212EF04CBB53
:104E100038BD00BF3AD9030007D5030014D90300F9
:104E20002DE9F04F87B0CDE90223436A013B8B4265
:104E300004468B46C0F0C2800027DFF88C81DFF883
:104E40008C91BA4604F114064FF02003EFF311825F
:104E500083F31288BFF36F8F30460192009226F0E1
:104E6000DFFA68B95A498E23424648462EF023FBA2
:104E7000584831462EF01FFB8E2140462EF014FB81
:104E8000304626F0EBFA05A920462EF021FB0599C5
:104E90005945054637D32168236A13F8212022F0AB
:104EA000030203F8212020465A4603EB810A2EF024
:104EB00035FB00252060304626F0C0FA68B9464927
:104EC000B923424648462EF0F6FA444831462EF0C1
:104ED000F2FAB92140462EF0E7FA009B83F31188DD
:104EE000BFF36F8F002D6BD0002FABD09DF8133028
:104EF000002BA7D0A36923B1394620469847002745
:104F0000A0E71F469EE718B120462EF015FBD2E71A
:104F1000DDE90232134343D035F07CFD00283FD158
:104F2000304626F08BFA68B92B49B92342464846E9
:104F30002EF0C1FA294831462EF0BDFAB92140467B
:104F40002EF0B2FA019B83F31188BFF36F8FDDE976
:104F5000022304F12C0026F035FE05464FF0200216
:104F6000EFF3118382F31288BFF36F8F3046009303
:104F700026F056FA68B916498E23424648462EF066
:104F80009AFA144831462EF096FA8E2140462EF0B9
:104F90008BFA3046B5FA85F526F060FA6D098AE796
:104FA000226905990DF11303C2F3400220462EF049
:104FB000EAFA051E074618BF01257CE74FF0000AF4
:104FC000504607B0BDE8F08FBBD6030007D50300FD
:104FD00014D7030029D70300E8D60300FFD6030047
:104FE0002DE9F041C369044608460E46984704F18E
:104FF000140507464FF02003EFF3118883F312885E
:10500000BFF36F8F284626F00BFA68B91A4A1B497E
:105010001B488E232EF04FFA1A4829462EF04BFAE1
:1050200015488E212EF040FA284626F017FA3378DC
:1050300043F00103337061683A4620462EF06EFA61
:10504000606020462EF08EFA284626F0F7F968B9FF
:10505000094A0D490A48B9232EF02DFA0B48294672
:105060002EF029FA0448B9212EF01EFA88F311888F
:10507000BFF36F8FBDE8F081BBD6030014D70300E8
:1050800007D5030029D70300E8D60300FFD60300A5
:105090002DE9F74F3C4FDFF8F4A0DFF8F480054628
:1050A00005F114064FF02003EFF3118983F3128802
:1050B000BFF36F8F304626F0B3F968B98E233A46B6
:1050C000514640462EF0F7F9324831462EF0F3F9BA
:1050D0008E2138462EF0E8F9304626F0BFF9D5E9A2
:1050E0000141A14288BF6C6A641AFCB1286A10F8B9
:1050F000213013F0030400EB810B17D0022C03D1F5
:1051000050F82140A40816D1DC07EA6910D543F015
:10511000020300F821305846019190470199024658
:1051200028462EF0FBF90024A86011E0A3460FE00A
:10513000584690470446A968224628462EF0EEF9C4
:10514000E968A860224628462EF0E8F90124E860C4
:10515000304626F073F968B90F49B9233A464046FC
:105160002EF0A9F90D4831462EF0A5F9B92138469F
:105170002EF09AF989F31188BFF36F8F002C8FD12D
:10518000584603B0BDE8F08FBBD6030014D7030028
:1051900007D5030029D70300E8D60300FFD6030094
:1051A0002DE9F041C369044608460D46984704F1CD
:1051B000140607464FF02003EFF3118883F312889B
:1051C000BFF36F8F304626F02BF968B9244A254982
:1051D00025488E232EF06FF9244831462EF06BF9C6
:1051E0001F488E212EF060F9304626F037F92B78D3
:1051F0006FF300032B7023699B0705D5E268236AD0
:1052000003EB82039D4225D12B786FF341032B7072
:10521000E1683A4620462EF081F9E060304626F0FB
:105220000DF968B90E4A12490F48B9232EF043F917
:10523000104831462EF03FF90948B9212EF034F9D3
:1052400088F31188BFF36F8F04F12C00BDE8F041A3
:1052500026F074BC2B6867F39F032B60DEE700BF6A
:10526000BBD6030014D7030007D5030029D70300DA
:10527000E8D60300FFD6030008B54FF02002EFF395
:10528000118382F31288BFF36F8F03F011F8034884
:105290002DF066FF01F0DAFFFCE700BF43D9030001
:1052A00024F03EB82DE9F843DFF84880044606466E
:1052B000012714B93046BDE8F88394FAA4F5B5FA8D
:1052C00085F507FA05F308EB05156FEA030924EAEB
:1052D00003042B7B002BECD028462EF0D0F90028BD
:1052E000E7D16B6804221968284606EA090600F02F
:1052F0009BFADEE7DCBB030030B51049104889B0EB
:10530000002235F0B3FC0F4D0F4900220023CDE9F8
:10531000062300240E23CDE90334CDE901440B4BD1
:1053200000944FF40062284625F0A2FF0849284661
:1053300025F018FF204609B030BD00BF1D54000005
:10534000101D0020481D0020C05900202D560000CF
:105350006CD903002DE9F0472A4B2B4DED1A902D07
:10536000814688460BD9294929482A4A4FF4847333
:105370002EF0A1F827484FF484712EF095F8BFF372
:105380005B8F254B53E8004F621C43E80021002946
:10539000F8D1BFF35B8F1CB100242046BDE8F08735
:1053A0002E11184D27464FF0010AB74211DBB9F113
:1053B000000FF2D0002CEFD02046FFF773FF044619
:1053C000B8F1000FF6D000214FF4A47028F038FA9D
:1053D000F0E72B7B73B12B68DB680BB1284698474D
:1053E00028462EF04CF940B96B680422196828460B
:1053F00000F01AFA01371035D7E70AFA07F31C4311
:10540000F8E700BFDCBB0300FCBB0300A1D903002D
:1054100007D5030074D90300802C0020014826F032
:105420008DBB00BF00170020014B53F820007047D0
:1054300010BF030010B5044C237813B9034826F0BD
:105440007DFB0123237010BDEE53002000170020C8
:105450000C4BBFF35B8F53E8002F013243E8002170
:105460000029F8D1BFF35B8F58B1BFF35B8F064BB8
:1054700053E8002F013A43E800210029F8D1BFF397
:105480005B8F70477C2C0020782C00200020064B7E
:10549000BFF35B8F024653E8000F43E80021002969
:1054A000F9D1BFF35B8F70477C2C0020F8B5FFF774
:1054B000EDFF0B4C0B4D2D1B07462D110026AE4268
:1054C00000DBF8BD20462EF0D7F828B123685B68D2
:1054D00013B139462046984701361034EFE700BF34
:1054E000DCBB0300FCBB030001490248FFF764BCBE
:1054F0001CBF0300842C0020084A08B50023137049
:10550000074A1360074B084A1A604FF4004000F046
:105510002FFCBDE80840FFF7E7BF00BFEF530020B6
:105520007C2C0020EC0400208B3603000146002276
:1055300001480023FFF774BC842C00200148FFF7CA
:10554000A7BD00BF842C002001460148FFF728BEFC
:10555000842C002001482EF070B800BF842C00205D
:10556000F8B51A4B187878B3FFF7E8FF0546A8B1ED
:10557000BFF35B8F164B53E8002F013A43E800213D
:105580000029F8D1BFF35B8F124C134E361B361136
:105590000027B7420CDB2846FFF7D6FF0F4B1B68EE
:1055A000002B01DDFFF782FFBDE8F840FFF7D2BF17
:1055B00020462EF061F820B1236829461B6820465A
:1055C000984701371034E4E7F8BD00BFEE530020E0
:1055D000782C0020DCBB0300FCBB03007C2C0020EB
:1055E000F8B50F4F3D787DB90E4C0F4E294601207E
:1055F000FFF7B0FE361B3611B54206DBFFF7B0FFF2
:105600000028FBD101233B70F8BD20462EF034F872
:1056100018B1236820469B68984701351034EBE7A2
:10562000EF530020DCBB0300FCBB03002DE9F84F67
:105630002A4D2B4BED1A002D0BDC2A492A482B4A08
:1056400040F28A232DF037FF284840F28A212DF0BE
:105650002BFF00210846FFF77DFE044668B340F2A9
:105660006766002728F024F9214B186030B1214BE0
:105670001B68092B02DD204826F060FADFF878B0BD
:105680004FEA2518002544B12046FFF70BFE0446DB
:1056900018B94FF0FF364FF0FF37FFF761FF814633
:1056A00048B91DB10E4D8246C2450BDB32463B4622
:1056B000584626F087FA4D46E5E74FF0FF364FF0A3
:1056C000FF37CFE72B689B691BB1002211462846A4
:1056D00098470AF1010A1035E6E700BFFCBB03005A
:1056E000DCBB0300C5D9030007D5030074D9030050
:1056F000C82C0020782C002000170020354B13B553
:105700001B68044698472146A0603348FFF768FCB1
:10571000BFF35B8F314B53E8002F511C43E800105F
:105720000028F8D1BFF35B8F2D4B1B78002B36D0B0
:105730004FF02003EFF3118483F31288BFF36F8FD0
:10574000284825F06DFE68B9274A284928488E2345
:105750002DF0B1FE234927482DF0ADFE22488E21C1
:105760002DF0A2FE1F4825F079FEFFF7F9FE1D4837
:1057700025F064FE68B91C4A1F491D48B9232DF065
:105780009AFE18491D482DF096FE1748B9212DF0B4
:105790008BFE84F31188BFF36F8F02B010BD184BDE
:1057A0001B68002BF9D052B900220023CDE9002359
:1057B00014484FF40042002328F040FEEDE70A2A87
:1057C000EBD1104835F05EFA0F4802B0BDE810404A
:1057D00026F0B4B9EC040020842C0020782C0020A2
:1057E000EF530020CC2C0020BBD6030014D70300BD
:1057F00007D5030029D70300E8D60300FFD603002E
:10580000C82C0020101D002000170020044A054B62
:105810009B1AB1EBD30F34BF52F831000020704710
:1058200054B90300DCBB030070B50D4C041B2411FC
:10583000013405460E46E4B248B90A490A480B4A03
:10584000DE232DF038FE0948DE212DF02DFE6B6899
:1058500001221C711E605A71BDE87040FFF7EABD5D
:10586000DCBB030075DA030007D503003DDA030053
:105870002DE9F04FC1F3CB45C1F349268DB08146E8
:105880000C4690469A461735002E47D0022309A8A9
:105890004FF0040B07AF002231460093CDF808B05B
:1058A000034601974046CDE909220B920596FDF784
:1058B000B3FFC0F30903581920F0070080081E4603
:1058C00063F352240493FFF731FE0546D8B1049BDD
:1058D0000A9310300022022309900B920093CDE925
:1058E000017B124A059909AB4046FDF795FF002858
:1058F00009DA0F490F48104A48232DF0DCFD0E4805
:1059000048212DF0D1FD66F35224534622464946E4
:1059100028460DB0BDE8F04F2DF0D5BE25F00700AC
:105920008008FFF703FE0546EDE700BF9936030048
:10593000B8DA030007D503008CDA03000EB403B510
:1059400003AB014653F8042B044801932DF0E3FE0A
:1059500002B05DF804EB03B0704700BF615900006E
:1059600038B54B681A68CB689A4205460C4602D196
:1059700008462DF0D7FE6368BFF35B8F53E8002F16
:10598000511C43E800100028F8D1BFF35B8FA368D7
:105990009D5463681A68E3689A4209D90549064824
:1059A000064A79232DF087FD044879212DF07CFDEE
:1059B000002038BDF0DA030007D50300C1DA030088
:1059C0002DE9F04F89B09A469DF848300493DDE9FF
:1059D00013830693159B0593049B169E04460F465E
:1059E0009346002B00F0228106F0080307932DF068
:1059F00051FE06F002050246002800F0C0809149E1
:105A00002046FFF79BFF81464DB116F0440F40F052
:105A1000B8808D493A462046FFF790FF814406F052
:105A200001035BB1894B049A894953F82220894BC1
:105A30002046002A08BF1A46FFF780FF06F0080339
:105A4000002B00F0CA80844B049A844953F822202A
:105A50002046FFF773FF0546BBF1000F05D08049D4
:105A60005A462046FFF76AFF0544BAF1000F05D0F9
:105A70007C4952462046FFF761FF05444D44B8F18A
:105A8000000F00F0DB8078487849434622462DF02D
:105A900069FA00280BDA76497648774A4FF4FD73A5
:105AA0002DF009FD74484FF4FD712DF0FDFC059BB0
:105AB000002B4CD0DFF8C481059F102F28BF102782
:105AC000F30606D4B0064CBF6D496E492046FFF779
:105AD00035FF4FF0000A554500F38580DFF8A8A197
